{
  "_format": "hh-sol-artifact-1",
  "contractName": "AssetIssuerToken",
  "sourceName": "contracts/AssetIssuerToken.sol",
  "abi": [
    {
      "inputs": [
        {
          "internalType": "string",
          "name": "name",
          "type": "string"
        },
        {
          "internalType": "string",
          "name": "symbol",
          "type": "string"
        },
        {
          "internalType": "uint256",
          "name": "initialSupply",
          "type": "uint256"
        }
      ],
      "stateMutability": "nonpayable",
      "type": "constructor"
    },
    {
      "inputs": [
        {
          "internalType": "address",
          "name": "spender",
          "type": "address"
        },
        {
          "internalType": "uint256",
          "name": "allowance",
          "type": "uint256"
        },
        {
          "internalType": "uint256",
          "name": "needed",
          "type": "uint256"
        }
      ],
      "name": "ERC20InsufficientAllowance",
      "type": "error"
    },
    {
      "inputs": [
        {
          "internalType": "address",
          "name": "sender",
          "type": "address"
        },
        {
          "internalType": "uint256",
          "name": "balance",
          "type": "uint256"
        },
        {
          "internalType": "uint256",
          "name": "needed",
          "type": "uint256"
        }
      ],
      "name": "ERC20InsufficientBalance",
      "type": "error"
    },
    {
      "inputs": [
        {
          "internalType": "address",
          "name": "approver",
          "type": "address"
        }
      ],
      "name": "ERC20InvalidApprover",
      "type": "error"
    },
    {
      "inputs": [
        {
          "internalType": "address",
          "name": "receiver",
          "type": "address"
        }
      ],
      "name": "ERC20InvalidReceiver",
      "type": "error"
    },
    {
      "inputs": [
        {
          "internalType": "address",
          "name": "sender",
          "type": "address"
        }
      ],
      "name": "ERC20InvalidSender",
      "type": "error"
    },
    {
      "inputs": [
        {
          "internalType": "address",
          "name": "spender",
          "type": "address"
        }
      ],
      "name": "ERC20InvalidSpender",
      "type": "error"
    },
    {
      "anonymous": false,
      "inputs": [
        {
          "indexed": true,
          "internalType": "address",
          "name": "owner",
          "type": "address"
        },
        {
          "indexed": true,
          "internalType": "address",
          "name": "spender",
          "type": "address"
        },
        {
          "indexed": false,
          "internalType": "uint256",
          "name": "value",
          "type": "uint256"
        }
      ],
      "name": "Approval",
      "type": "event"
    },
    {
      "anonymous": false,
      "inputs": [
        {
          "indexed": true,
          "internalType": "address",
          "name": "from",
          "type": "address"
        },
        {
          "indexed": true,
          "internalType": "address",
          "name": "to",
          "type": "address"
        },
        {
          "indexed": false,
          "internalType": "uint256",
          "name": "value",
          "type": "uint256"
        }
      ],
      "name": "Transfer",
      "type": "event"
    },
    {
      "inputs": [
        {
          "internalType": "address",
          "name": "owner",
          "type": "address"
        },
        {
          "internalType": "address",
          "name": "spender",
          "type": "address"
        }
      ],
      "name": "allowance",
      "outputs": [
        {
          "internalType": "uint256",
          "name": "",
          "type": "uint256"
        }
      ],
      "stateMutability": "view",
      "type": "function"
    },
    {
      "inputs": [
        {
          "internalType": "address",
          "name": "spender",
          "type": "address"
        },
        {
          "internalType": "uint256",
          "name": "value",
          "type": "uint256"
        }
      ],
      "name": "approve",
      "outputs": [
        {
          "internalType": "bool",
          "name": "",
          "type": "bool"
        }
      ],
      "stateMutability": "nonpayable",
      "type": "function"
    },
    {
      "inputs": [
        {
          "internalType": "address",
          "name": "account",
          "type": "address"
        }
      ],
      "name": "balanceOf",
      "outputs": [
        {
          "internalType": "uint256",
          "name": "",
          "type": "uint256"
        }
      ],
      "stateMutability": "view",
      "type": "function"
    },
    {
      "inputs": [
        {
          "internalType": "address",
          "name": "account",
          "type": "address"
        },
        {
          "internalType": "uint256",
          "name": "amount",
          "type": "uint256"
        }
      ],
      "name": "burn",
      "outputs": [],
      "stateMutability": "nonpayable",
      "type": "function"
    },
    {
      "inputs": [],
      "name": "decimals",
      "outputs": [
        {
          "internalType": "uint8",
          "name": "",
          "type": "uint8"
        }
      ],
      "stateMutability": "view",
      "type": "function"
    },
    {
      "inputs": [
        {
          "internalType": "address",
          "name": "account",
          "type": "address"
        },
        {
          "internalType": "uint256",
          "name": "amount",
          "type": "uint256"
        }
      ],
      "name": "mint",
      "outputs": [],
      "stateMutability": "nonpayable",
      "type": "function"
    },
    {
      "inputs": [],
      "name": "name",
      "outputs": [
        {
          "internalType": "string",
          "name": "",
          "type": "string"
        }
      ],
      "stateMutability": "view",
      "type": "function"
    },
    {
      "inputs": [],
      "name": "owner",
      "outputs": [
        {
          "internalType": "address",
          "name": "",
          "type": "address"
        }
      ],
      "stateMutability": "view",
      "type": "function"
    },
    {
      "inputs": [],
      "name": "symbol",
      "outputs": [
        {
          "internalType": "string",
          "name": "",
          "type": "string"
        }
      ],
      "stateMutability": "view",
      "type": "function"
    },
    {
      "inputs": [],
      "name": "totalSupply",
      "outputs": [
        {
          "internalType": "uint256",
          "name": "",
          "type": "uint256"
        }
      ],
      "stateMutability": "view",
      "type": "function"
    },
    {
      "inputs": [
        {
          "internalType": "address",
          "name": "to",
          "type": "address"
        },
        {
          "internalType": "uint256",
          "name": "value",
          "type": "uint256"
        }
      ],
      "name": "transfer",
      "outputs": [
        {
          "internalType": "bool",
          "name": "",
          "type": "bool"
        }
      ],
      "stateMutability": "nonpayable",
      "type": "function"
    },
    {
      "inputs": [
        {
          "internalType": "address",
          "name": "from",
          "type": "address"
        },
        {
          "internalType": "address",
          "name": "to",
          "type": "address"
        },
        {
          "internalType": "uint256",
          "name": "value",
          "type": "uint256"
        }
      ],
      "name": "transferFrom",
      "outputs": [
        {
          "internalType": "bool",
          "name": "",
          "type": "bool"
        }
      ],
      "stateMutability": "nonpayable",
      "type": "function"
    }
  ],
  "bytecode": "0x60806040523480156200001157600080fd5b5060405162001c1338038062001c13833981810160405281019062000037919062000546565b828281600390816200004a919062000821565b5080600490816200005c919062000821565b50505033600560006101000a81548173ffffffffffffffffffffffffffffffffffffffff021916908373ffffffffffffffffffffffffffffffffffffffff160217905550620000b23382620000bb60201b60201c565b50505062000a3f565b600073ffffffffffffffffffffffffffffffffffffffff168273ffffffffffffffffffffffffffffffffffffffff1603620001305760006040517fec442f050000000000000000000000000000000000000000000000000000000081526004016200012791906200094d565b60405180910390fd5b62000144600083836200014860201b60201c565b5050565b600073ffffffffffffffffffffffffffffffffffffffff168373ffffffffffffffffffffffffffffffffffffffff16036200019e57806002600082825462000191919062000999565b9250508190555062000274565b60008060008573ffffffffffffffffffffffffffffffffffffffff1673ffffffffffffffffffffffffffffffffffffffff168152602001908152602001600020549050818110156200022d578381836040517fe450d38c0000000000000000000000000000000000000000000000000000000081526004016200022493929190620009e5565b60405180910390fd5b8181036000808673ffffffffffffffffffffffffffffffffffffffff1673ffffffffffffffffffffffffffffffffffffffff16815260200190815260200160002081905550505b600073ffffffffffffffffffffffffffffffffffffffff168273ffffffffffffffffffffffffffffffffffffffff1603620002bf57806002600082825403925050819055506200030c565b806000808473ffffffffffffffffffffffffffffffffffffffff1673ffffffffffffffffffffffffffffffffffffffff168152602001908152602001600020600082825401925050819055505b8173ffffffffffffffffffffffffffffffffffffffff168373ffffffffffffffffffffffffffffffffffffffff167fddf252ad1be2c89b69c2b068fc378daa952ba7f163c4a11628f55a4df523b3ef836040516200036b919062000a22565b60405180910390a3505050565b6000604051905090565b600080fd5b600080fd5b600080fd5b600080fd5b6000601f19601f8301169050919050565b7f4e487b7100000000000000000000000000000000000000000000000000000000600052604160045260246000fd5b620003e18262000396565b810181811067ffffffffffffffff82111715620004035762000402620003a7565b5b80604052505050565b60006200041862000378565b9050620004268282620003d6565b919050565b600067ffffffffffffffff821115620004495762000448620003a7565b5b620004548262000396565b9050602081019050919050565b60005b838110156200048157808201518184015260208101905062000464565b60008484015250505050565b6000620004a46200049e846200042b565b6200040c565b905082815260208101848484011115620004c357620004c262000391565b5b620004d084828562000461565b509392505050565b600082601f830112620004f057620004ef6200038c565b5b8151620005028482602086016200048d565b91505092915050565b6000819050919050565b62000520816200050b565b81146200052c57600080fd5b50565b600081519050620005408162000515565b92915050565b60008060006060848603121562000562576200056162000382565b5b600084015167ffffffffffffffff81111562000583576200058262000387565b5b6200059186828701620004d8565b935050602084015167ffffffffffffffff811115620005b557620005b462000387565b5b620005c386828701620004d8565b9250506040620005d6868287016200052f565b9150509250925092565b600081519050919050565b7f4e487b7100000000000000000000000000000000000000000000000000000000600052602260045260246000fd5b600060028204905060018216806200063357607f821691505b602082108103620006495762000648620005eb565b5b50919050565b60008190508160005260206000209050919050565b60006020601f8301049050919050565b600082821b905092915050565b600060088302620006b37fffffffffffffffffffffffffffffffffffffffffffffffffffffffffffffffff8262000674565b620006bf868362000674565b95508019841693508086168417925050509392505050565b6000819050919050565b600062000702620006fc620006f6846200050b565b620006d7565b6200050b565b9050919050565b6000819050919050565b6200071e83620006e1565b620007366200072d8262000709565b84845462000681565b825550505050565b600090565b6200074d6200073e565b6200075a81848462000713565b505050565b5b8181101562000782576200077660008262000743565b60018101905062000760565b5050565b601f821115620007d1576200079b816200064f565b620007a68462000664565b81016020851015620007b6578190505b620007ce620007c58562000664565b8301826200075f565b50505b505050565b600082821c905092915050565b6000620007f660001984600802620007d6565b1980831691505092915050565b6000620008118383620007e3565b9150826002028217905092915050565b6200082c82620005e0565b67ffffffffffffffff811115620008485762000847620003a7565b5b6200085482546200061a565b6200086182828562000786565b600060209050601f83116001811462000899576000841562000884578287015190505b62000890858262000803565b86555062000900565b601f198416620008a9866200064f565b60005b82811015620008d357848901518255600182019150602085019450602081019050620008ac565b86831015620008f35784890151620008ef601f891682620007e3565b8355505b6001600288020188555050505b505050505050565b600073ffffffffffffffffffffffffffffffffffffffff82169050919050565b6000620009358262000908565b9050919050565b620009478162000928565b82525050565b60006020820190506200096460008301846200093c565b92915050565b7f4e487b7100000000000000000000000000000000000000000000000000000000600052601160045260246000fd5b6000620009a6826200050b565b9150620009b3836200050b565b9250828201905080821115620009ce57620009cd6200096a565b5b92915050565b620009df816200050b565b82525050565b6000606082019050620009fc60008301866200093c565b62000a0b6020830185620009d4565b62000a1a6040830184620009d4565b949350505050565b600060208201905062000a396000830184620009d4565b92915050565b6111c48062000a4f6000396000f3fe608060405234801561001057600080fd5b50600436106100b45760003560e01c806370a082311161007157806370a082311461018f5780638da5cb5b146101bf57806395d89b41146101dd5780639dc29fac146101fb578063a9059cbb14610217578063dd62ed3e14610247576100b4565b806306fdde03146100b9578063095ea7b3146100d757806318160ddd1461010757806323b872dd14610125578063313ce5671461015557806340c10f1914610173575b600080fd5b6100c1610277565b6040516100ce9190610d86565b60405180910390f35b6100f160048036038101906100ec9190610e41565b610309565b6040516100fe9190610e9c565b60405180910390f35b61010f61032c565b60405161011c9190610ec6565b60405180910390f35b61013f600480360381019061013a9190610ee1565b610336565b60405161014c9190610e9c565b60405180910390f35b61015d610365565b60405161016a9190610f50565b60405180910390f35b61018d60048036038101906101889190610e41565b61036e565b005b6101a960048036038101906101a49190610f6b565b61040c565b6040516101b69190610ec6565b60405180910390f35b6101c7610454565b6040516101d49190610fa7565b60405180910390f35b6101e561047a565b6040516101f29190610d86565b60405180910390f35b61021560048036038101906102109190610e41565b61050c565b005b610231600480360381019061022c9190610e41565b6105aa565b60405161023e9190610e9c565b60405180910390f35b610261600480360381019061025c9190610fc2565b6105cd565b60405161026e9190610ec6565b60405180910390f35b60606003805461028690611031565b80601f01602080910402602001604051908101604052809291908181526020018280546102b290611031565b80156102ff5780601f106102d4576101008083540402835291602001916102ff565b820191906000526020600020905b8154815290600101906020018083116102e257829003601f168201915b5050505050905090565b600080610314610654565b905061032181858561065c565b600191505092915050565b6000600254905090565b600080610341610654565b905061034e85828561066e565b610359858585610702565b60019150509392505050565b60006012905090565b600560009054906101000a900473ffffffffffffffffffffffffffffffffffffffff1673ffffffffffffffffffffffffffffffffffffffff163373ffffffffffffffffffffffffffffffffffffffff16146103fe576040517f08c379a00000000000000000000000000000000000000000000000000000000081526004016103f5906110d4565b60405180910390fd5b61040882826107f6565b5050565b60008060008373ffffffffffffffffffffffffffffffffffffffff1673ffffffffffffffffffffffffffffffffffffffff168152602001908152602001600020549050919050565b600560009054906101000a900473ffffffffffffffffffffffffffffffffffffffff1681565b60606004805461048990611031565b80601f01602080910402602001604051908101604052809291908181526020018280546104b590611031565b80156105025780601f106104d757610100808354040283529160200191610502565b820191906000526020600020905b8154815290600101906020018083116104e557829003601f168201915b5050505050905090565b600560009054906101000a900473ffffffffffffffffffffffffffffffffffffffff1673ffffffffffffffffffffffffffffffffffffffff163373ffffffffffffffffffffffffffffffffffffffff161461059c576040517f08c379a0000000000000000000000000000000000000000000000000000000008152600401610593906110d4565b60405180910390fd5b6105a68282610878565b5050565b6000806105b5610654565b90506105c2818585610702565b600191505092915050565b6000600160008473ffffffffffffffffffffffffffffffffffffffff1673ffffffffffffffffffffffffffffffffffffffff16815260200190815260200160002060008373ffffffffffffffffffffffffffffffffffffffff1673ffffffffffffffffffffffffffffffffffffffff16815260200190815260200160002054905092915050565b600033905090565b61066983838360016108fa565b505050565b600061067a84846105cd565b90507fffffffffffffffffffffffffffffffffffffffffffffffffffffffffffffffff81146106fc57818110156106ec578281836040517ffb8f41b20000000000000000000000000000000000000000000000000000000081526004016106e3939291906110f4565b60405180910390fd5b6106fb848484840360006108fa565b5b50505050565b600073ffffffffffffffffffffffffffffffffffffffff168373ffffffffffffffffffffffffffffffffffffffff16036107745760006040517f96c6fd1e00000000000000000000000000000000000000000000000000000000815260040161076b9190610fa7565b60405180910390fd5b600073ffffffffffffffffffffffffffffffffffffffff168273ffffffffffffffffffffffffffffffffffffffff16036107e65760006040517fec442f050000000000000000000000000000000000000000000000000000000081526004016107dd9190610fa7565b60405180910390fd5b6107f1838383610ad1565b505050565b600073ffffffffffffffffffffffffffffffffffffffff168273ffffffffffffffffffffffffffffffffffffffff16036108685760006040517fec442f0500000000000000000000000000000000000000000000000000000000815260040161085f9190610fa7565b60405180910390fd5b61087460008383610ad1565b5050565b600073ffffffffffffffffffffffffffffffffffffffff168273ffffffffffffffffffffffffffffffffffffffff16036108ea5760006040517f96c6fd1e0000000000000000000000000000000000000000000000000000000081526004016108e19190610fa7565b60405180910390fd5b6108f682600083610ad1565b5050565b600073ffffffffffffffffffffffffffffffffffffffff168473ffffffffffffffffffffffffffffffffffffffff160361096c5760006040517fe602df050000000000000000000000000000000000000000000000000000000081526004016109639190610fa7565b60405180910390fd5b600073ffffffffffffffffffffffffffffffffffffffff168373ffffffffffffffffffffffffffffffffffffffff16036109de5760006040517f94280d620000000000000000000000000000000000000000000000000000000081526004016109d59190610fa7565b60405180910390fd5b81600160008673ffffffffffffffffffffffffffffffffffffffff1673ffffffffffffffffffffffffffffffffffffffff16815260200190815260200160002060008573ffffffffffffffffffffffffffffffffffffffff1673ffffffffffffffffffffffffffffffffffffffff168152602001908152602001600020819055508015610acb578273ffffffffffffffffffffffffffffffffffffffff168473ffffffffffffffffffffffffffffffffffffffff167f8c5be1e5ebec7d5bd14f71427d1e84f3dd0314c0f7b2291e5b200ac8c7c3b92584604051610ac29190610ec6565b60405180910390a35b50505050565b600073ffffffffffffffffffffffffffffffffffffffff168373ffffffffffffffffffffffffffffffffffffffff1603610b23578060026000828254610b17919061115a565b92505081905550610bf6565b60008060008573ffffffffffffffffffffffffffffffffffffffff1673ffffffffffffffffffffffffffffffffffffffff16815260200190815260200160002054905081811015610baf578381836040517fe450d38c000000000000000000000000000000000000000000000000000000008152600401610ba6939291906110f4565b60405180910390fd5b8181036000808673ffffffffffffffffffffffffffffffffffffffff1673ffffffffffffffffffffffffffffffffffffffff16815260200190815260200160002081905550505b600073ffffffffffffffffffffffffffffffffffffffff168273ffffffffffffffffffffffffffffffffffffffff1603610c3f5780600260008282540392505081905550610c8c565b806000808473ffffffffffffffffffffffffffffffffffffffff1673ffffffffffffffffffffffffffffffffffffffff168152602001908152602001600020600082825401925050819055505b8173ffffffffffffffffffffffffffffffffffffffff168373ffffffffffffffffffffffffffffffffffffffff167fddf252ad1be2c89b69c2b068fc378daa952ba7f163c4a11628f55a4df523b3ef83604051610ce99190610ec6565b60405180910390a3505050565b600081519050919050565b600082825260208201905092915050565b60005b83811015610d30578082015181840152602081019050610d15565b60008484015250505050565b6000601f19601f8301169050919050565b6000610d5882610cf6565b610d628185610d01565b9350610d72818560208601610d12565b610d7b81610d3c565b840191505092915050565b60006020820190508181036000830152610da08184610d4d565b905092915050565b600080fd5b600073ffffffffffffffffffffffffffffffffffffffff82169050919050565b6000610dd882610dad565b9050919050565b610de881610dcd565b8114610df357600080fd5b50565b600081359050610e0581610ddf565b92915050565b6000819050919050565b610e1e81610e0b565b8114610e2957600080fd5b50565b600081359050610e3b81610e15565b92915050565b60008060408385031215610e5857610e57610da8565b5b6000610e6685828601610df6565b9250506020610e7785828601610e2c565b9150509250929050565b60008115159050919050565b610e9681610e81565b82525050565b6000602082019050610eb16000830184610e8d565b92915050565b610ec081610e0b565b82525050565b6000602082019050610edb6000830184610eb7565b92915050565b600080600060608486031215610efa57610ef9610da8565b5b6000610f0886828701610df6565b9350506020610f1986828701610df6565b9250506040610f2a86828701610e2c565b9150509250925092565b600060ff82169050919050565b610f4a81610f34565b82525050565b6000602082019050610f656000830184610f41565b92915050565b600060208284031215610f8157610f80610da8565b5b6000610f8f84828501610df6565b91505092915050565b610fa181610dcd565b82525050565b6000602082019050610fbc6000830184610f98565b92915050565b60008060408385031215610fd957610fd8610da8565b5b6000610fe785828601610df6565b9250506020610ff885828601610df6565b9150509250929050565b7f4e487b7100000000000000000000000000000000000000000000000000000000600052602260045260246000fd5b6000600282049050600182168061104957607f821691505b60208210810361105c5761105b611002565b5b50919050565b7f4f6e6c7920746865206f776e65722063616e20706572666f726d20746869732060008201527f616374696f6e0000000000000000000000000000000000000000000000000000602082015250565b60006110be602683610d01565b91506110c982611062565b604082019050919050565b600060208201905081810360008301526110ed816110b1565b9050919050565b60006060820190506111096000830186610f98565b6111166020830185610eb7565b6111236040830184610eb7565b949350505050565b7f4e487b7100000000000000000000000000000000000000000000000000000000600052601160045260246000fd5b600061116582610e0b565b915061117083610e0b565b92508282019050808211156111885761118761112b565b5b9291505056fea26469706673582212205e1914dd28d64d19c5827cce64dc227c3b706b1d3912928eb938c23f2e7b318064736f6c63430008140033",
  "linkReferences": {},
  "deployedLinkReferences": {}
}