{
  "_format": "hh-sol-artifact-1",
  "contractName": "Orderbook",
  "sourceName": "contracts/Orderbook.sol",
  "abi": [
    {
      "anonymous": false,
      "inputs": [
        {
          "components": [
            {
              "internalType": "uint256",
              "name": "id",
              "type": "uint256"
            },
            {
              "internalType": "address",
              "name": "wallet",
              "type": "address"
            },
            {
              "internalType": "uint256",
              "name": "price",
              "type": "uint256"
            },
            {
              "internalType": "uint256",
              "name": "quantity",
              "type": "uint256"
            },
            {
              "internalType": "bool",
              "name": "isFilled",
              "type": "bool"
            },
            {
              "internalType": "bool",
              "name": "isbuyOrder",
              "type": "bool"
            },
            {
              "internalType": "address",
              "name": "baseToken",
              "type": "address"
            },
            {
              "internalType": "address",
              "name": "quoteToken",
              "type": "address"
            }
          ],
          "indexed": false,
          "internalType": "struct Orderbook.Order",
          "name": "order",
          "type": "tuple"
        }
      ],
      "name": "Inserted",
      "type": "event"
    },
    {
      "anonymous": false,
      "inputs": [
        {
          "indexed": false,
          "internalType": "uint256",
          "name": "OrderId",
          "type": "uint256"
        },
        {
          "indexed": false,
          "internalType": "address",
          "name": "wallet",
          "type": "address"
        },
        {
          "indexed": false,
          "internalType": "bool",
          "name": "isBuyOrder",
          "type": "bool"
        }
      ],
      "name": "OrderCancelled",
      "type": "event"
    },
    {
      "anonymous": false,
      "inputs": [
        {
          "indexed": false,
          "internalType": "uint256",
          "name": "buyOrderID",
          "type": "uint256"
        },
        {
          "indexed": false,
          "internalType": "uint256",
          "name": "sellOrderID",
          "type": "uint256"
        },
        {
          "indexed": false,
          "internalType": "address",
          "name": "buyerWallet",
          "type": "address"
        },
        {
          "indexed": false,
          "internalType": "address",
          "name": "sellerWallet",
          "type": "address"
        },
        {
          "indexed": false,
          "internalType": "uint256",
          "name": "price",
          "type": "uint256"
        },
        {
          "indexed": false,
          "internalType": "uint256",
          "name": "quantity",
          "type": "uint256"
        }
      ],
      "name": "TradeMatched",
      "type": "event"
    },
    {
      "anonymous": false,
      "inputs": [
        {
          "indexed": false,
          "internalType": "uint256",
          "name": "price",
          "type": "uint256"
        },
        {
          "indexed": false,
          "internalType": "uint256",
          "name": "quantity",
          "type": "uint256"
        },
        {
          "indexed": false,
          "internalType": "address",
          "name": "baseToken",
          "type": "address"
        },
        {
          "indexed": false,
          "internalType": "address",
          "name": "quoteToken",
          "type": "address"
        }
      ],
      "name": "Traded",
      "type": "event"
    },
    {
      "inputs": [
        {
          "internalType": "uint256",
          "name": "_price",
          "type": "uint256"
        },
        {
          "internalType": "uint256",
          "name": "_quantity",
          "type": "uint256"
        },
        {
          "internalType": "address",
          "name": "_baseToken",
          "type": "address"
        },
        {
          "internalType": "address",
          "name": "_quoteToken",
          "type": "address"
        }
      ],
      "name": "buyLimitOrder",
      "outputs": [],
      "stateMutability": "nonpayable",
      "type": "function"
    },
    {
      "inputs": [
        {
          "internalType": "uint256",
          "name": "",
          "type": "uint256"
        }
      ],
      "name": "buyOrders",
      "outputs": [
        {
          "internalType": "uint256",
          "name": "id",
          "type": "uint256"
        },
        {
          "internalType": "address",
          "name": "wallet",
          "type": "address"
        },
        {
          "internalType": "uint256",
          "name": "price",
          "type": "uint256"
        },
        {
          "internalType": "uint256",
          "name": "quantity",
          "type": "uint256"
        },
        {
          "internalType": "bool",
          "name": "isFilled",
          "type": "bool"
        },
        {
          "internalType": "bool",
          "name": "isbuyOrder",
          "type": "bool"
        },
        {
          "internalType": "address",
          "name": "baseToken",
          "type": "address"
        },
        {
          "internalType": "address",
          "name": "quoteToken",
          "type": "address"
        }
      ],
      "stateMutability": "view",
      "type": "function"
    },
    {
      "inputs": [
        {
          "internalType": "uint256",
          "name": "orderid",
          "type": "uint256"
        },
        {
          "internalType": "bool",
          "name": "isbuyOrder",
          "type": "bool"
        }
      ],
      "name": "cancelOrders",
      "outputs": [],
      "stateMutability": "nonpayable",
      "type": "function"
    },
    {
      "inputs": [
        {
          "internalType": "uint256",
          "name": "index",
          "type": "uint256"
        }
      ],
      "name": "getBuyArray",
      "outputs": [
        {
          "components": [
            {
              "internalType": "uint256",
              "name": "id",
              "type": "uint256"
            },
            {
              "internalType": "address",
              "name": "wallet",
              "type": "address"
            },
            {
              "internalType": "uint256",
              "name": "price",
              "type": "uint256"
            },
            {
              "internalType": "uint256",
              "name": "quantity",
              "type": "uint256"
            },
            {
              "internalType": "bool",
              "name": "isFilled",
              "type": "bool"
            },
            {
              "internalType": "bool",
              "name": "isbuyOrder",
              "type": "bool"
            },
            {
              "internalType": "address",
              "name": "baseToken",
              "type": "address"
            },
            {
              "internalType": "address",
              "name": "quoteToken",
              "type": "address"
            }
          ],
          "internalType": "struct Orderbook.Order",
          "name": "",
          "type": "tuple"
        }
      ],
      "stateMutability": "view",
      "type": "function"
    },
    {
      "inputs": [],
      "name": "getBuyArrayLength",
      "outputs": [
        {
          "internalType": "uint256",
          "name": "length",
          "type": "uint256"
        }
      ],
      "stateMutability": "view",
      "type": "function"
    },
    {
      "inputs": [
        {
          "internalType": "uint256",
          "name": "index",
          "type": "uint256"
        }
      ],
      "name": "getsellArray",
      "outputs": [
        {
          "components": [
            {
              "internalType": "uint256",
              "name": "id",
              "type": "uint256"
            },
            {
              "internalType": "address",
              "name": "wallet",
              "type": "address"
            },
            {
              "internalType": "uint256",
              "name": "price",
              "type": "uint256"
            },
            {
              "internalType": "uint256",
              "name": "quantity",
              "type": "uint256"
            },
            {
              "internalType": "bool",
              "name": "isFilled",
              "type": "bool"
            },
            {
              "internalType": "bool",
              "name": "isbuyOrder",
              "type": "bool"
            },
            {
              "internalType": "address",
              "name": "baseToken",
              "type": "address"
            },
            {
              "internalType": "address",
              "name": "quoteToken",
              "type": "address"
            }
          ],
          "internalType": "struct Orderbook.Order",
          "name": "",
          "type": "tuple"
        }
      ],
      "stateMutability": "view",
      "type": "function"
    },
    {
      "inputs": [],
      "name": "getsellArrayLength",
      "outputs": [
        {
          "internalType": "uint256",
          "name": "length",
          "type": "uint256"
        }
      ],
      "stateMutability": "view",
      "type": "function"
    },
    {
      "inputs": [
        {
          "internalType": "uint256",
          "name": "_price",
          "type": "uint256"
        },
        {
          "internalType": "uint256",
          "name": "_quantity",
          "type": "uint256"
        },
        {
          "internalType": "address",
          "name": "_baseToken",
          "type": "address"
        },
        {
          "internalType": "address",
          "name": "_quoteToken",
          "type": "address"
        }
      ],
      "name": "sellLimitOrder",
      "outputs": [],
      "stateMutability": "nonpayable",
      "type": "function"
    },
    {
      "inputs": [
        {
          "internalType": "uint256",
          "name": "",
          "type": "uint256"
        }
      ],
      "name": "sellOrders",
      "outputs": [
        {
          "internalType": "uint256",
          "name": "id",
          "type": "uint256"
        },
        {
          "internalType": "address",
          "name": "wallet",
          "type": "address"
        },
        {
          "internalType": "uint256",
          "name": "price",
          "type": "uint256"
        },
        {
          "internalType": "uint256",
          "name": "quantity",
          "type": "uint256"
        },
        {
          "internalType": "bool",
          "name": "isFilled",
          "type": "bool"
        },
        {
          "internalType": "bool",
          "name": "isbuyOrder",
          "type": "bool"
        },
        {
          "internalType": "address",
          "name": "baseToken",
          "type": "address"
        },
        {
          "internalType": "address",
          "name": "quoteToken",
          "type": "address"
        }
      ],
      "stateMutability": "view",
      "type": "function"
    }
  ],
  "bytecode": "0x608060405234801561001057600080fd5b50612949806100206000396000f3fe608060405234801561001057600080fd5b50600436106100935760003560e01c80634e61d1e6116100665780634e61d1e61461015257806359c2f8fe146101705780639cb6d8f41461018e578063a0c16be7146101aa578063e2b1932b146101da57610093565b8063095c8f911461009857806335cea288146100c85780633b35850c146100ff5780634a8393f31461011b575b600080fd5b6100b260048036038101906100ad9190612032565b6101f6565b6040516100bf919061216c565b60405180910390f35b6100e260048036038101906100dd9190612032565b610389565b6040516100f69897969594939291906121b5565b60405180910390f35b6101196004803603810190610114919061225f565b61045b565b005b61013560048036038101906101309190612032565b6105b6565b6040516101499897969594939291906121b5565b60405180910390f35b61015a610688565b604051610167919061229f565b60405180910390f35b610178610695565b604051610185919061229f565b60405180910390f35b6101a860048036038101906101a391906122e6565b6106a1565b005b6101c460048036038101906101bf9190612032565b610819565b6040516101d1919061216c565b60405180910390f35b6101f460048036038101906101ef91906122e6565b6109ac565b005b6101fe611f6c565b600182815481106102125761021161234d565b5b906000526020600020906006020160405180610100016040529081600082015481526020016001820160009054906101000a900473ffffffffffffffffffffffffffffffffffffffff1673ffffffffffffffffffffffffffffffffffffffff1673ffffffffffffffffffffffffffffffffffffffff16815260200160028201548152602001600382015481526020016004820160009054906101000a900460ff161515151581526020016004820160019054906101000a900460ff161515151581526020016004820160029054906101000a900473ffffffffffffffffffffffffffffffffffffffff1673ffffffffffffffffffffffffffffffffffffffff1673ffffffffffffffffffffffffffffffffffffffff1681526020016005820160009054906101000a900473ffffffffffffffffffffffffffffffffffffffff1673ffffffffffffffffffffffffffffffffffffffff1673ffffffffffffffffffffffffffffffffffffffff16815250509050919050565b6000818154811061039957600080fd5b90600052602060002090600602016000915090508060000154908060010160009054906101000a900473ffffffffffffffffffffffffffffffffffffffff16908060020154908060030154908060040160009054906101000a900460ff16908060040160019054906101000a900460ff16908060040160029054906101000a900473ffffffffffffffffffffffffffffffffffffffff16908060050160009054906101000a900473ffffffffffffffffffffffffffffffffffffffff16905088565b6000600115158215150361049a57600061047484610b25565b815481106104855761048461234d565b5b906000526020600020906006020190506104c7565b60016104a584610c06565b815481106104b6576104b561234d565b5b906000526020600020906006020190505b3373ffffffffffffffffffffffffffffffffffffffff168160010160009054906101000a900473ffffffffffffffffffffffffffffffffffffffff1673ffffffffffffffffffffffffffffffffffffffff1614610559576040517f08c379a0000000000000000000000000000000000000000000000000000000008152600401610550906123d9565b60405180910390fd5b60018160040160006101000a81548160ff0219169083151502179055507f50ed996dde1c344c62fca456bf7fd7355794f59b86cb69b059dd9cef69b3ca5d8333846040516105a9939291906123f9565b60405180910390a1505050565b600181815481106105c657600080fd5b90600052602060002090600602016000915090508060000154908060010160009054906101000a900473ffffffffffffffffffffffffffffffffffffffff16908060020154908060030154908060040160009054906101000a900460ff16908060040160019054906101000a900460ff16908060040160029054906101000a900473ffffffffffffffffffffffffffffffffffffffff16908060050160009054906101000a900473ffffffffffffffffffffffffffffffffffffffff16905088565b6000600180549050905090565b60008080549050905090565b600084116106e4576040517f08c379a00000000000000000000000000000000000000000000000000000000081526004016106db9061247c565b60405180910390fd5b60008311610727576040517f08c379a000000000000000000000000000000000000000000000000000000000815260040161071e9061250e565b60405180910390fd5b60008080549050905060006040518061010001604052808381526020013373ffffffffffffffffffffffffffffffffffffffff1681526020018781526020018681526020016000151581526020016001151581526020018573ffffffffffffffffffffffffffffffffffffffff1681526020018473ffffffffffffffffffffffffffffffffffffffff1681525090506107bf81610ce8565b6107d46107cf8260000151610b25565b611243565b7f33d96411289395f0842596054abe6cf2802911ed295366531e4bd7b1a78b52e986868686604051610809949392919061252e565b60405180910390a1505050505050565b610821611f6c565b600082815481106108355761083461234d565b5b906000526020600020906006020160405180610100016040529081600082015481526020016001820160009054906101000a900473ffffffffffffffffffffffffffffffffffffffff1673ffffffffffffffffffffffffffffffffffffffff1673ffffffffffffffffffffffffffffffffffffffff16815260200160028201548152602001600382015481526020016004820160009054906101000a900460ff161515151581526020016004820160019054906101000a900460ff161515151581526020016004820160029054906101000a900473ffffffffffffffffffffffffffffffffffffffff1673ffffffffffffffffffffffffffffffffffffffff1673ffffffffffffffffffffffffffffffffffffffff1681526020016005820160009054906101000a900473ffffffffffffffffffffffffffffffffffffffff1673ffffffffffffffffffffffffffffffffffffffff1673ffffffffffffffffffffffffffffffffffffffff16815250509050919050565b600084116109ef576040517f08c379a00000000000000000000000000000000000000000000000000000000081526004016109e69061247c565b60405180910390fd5b60008311610a32576040517f08c379a0000000000000000000000000000000000000000000000000000000008152600401610a299061250e565b60405180910390fd5b6000600180549050905060006040518061010001604052808381526020013373ffffffffffffffffffffffffffffffffffffffff1681526020018781526020018681526020016000151581526020016000151581526020018573ffffffffffffffffffffffffffffffffffffffff1681526020018473ffffffffffffffffffffffffffffffffffffffff168152509050610acb8161161e565b610ae0610adb8260000151610c06565b611b78565b7f33d96411289395f0842596054abe6cf2802911ed295366531e4bd7b1a78b52e986868686604051610b15949392919061252e565b60405180910390a1505050505050565b600080805490508210610b6d576040517f08c379a0000000000000000000000000000000000000000000000000000000008152600401610b64906125bf565b60405180910390fd5b60005b600080549050811015610bc5578260008281548110610b9257610b9161234d565b5b90600052602060002090600602016000015403610bb25780915050610c01565b8080610bbd9061260e565b915050610b70565b506040517f08c379a0000000000000000000000000000000000000000000000000000000008152600401610bf8906126a2565b60405180910390fd5b919050565b60006001805490508210610c4f576040517f08c379a0000000000000000000000000000000000000000000000000000000008152600401610c469061270e565b60405180910390fd5b60005b600180549050811015610ca7578260018281548110610c7457610c7361234d565b5b90600052602060002090600602016000015403610c945780915050610ce3565b8080610c9f9061260e565b915050610c52565b506040517f08c379a0000000000000000000000000000000000000000000000000000000008152600401610cda9061277a565b60405180910390fd5b919050565b60008080549050905060008290806001815401808255809150506001900390600052602060002090600602016000909190919091506000820151816000015560208201518160010160006101000a81548173ffffffffffffffffffffffffffffffffffffffff021916908373ffffffffffffffffffffffffffffffffffffffff160217905550604082015181600201556060820151816003015560808201518160040160006101000a81548160ff02191690831515021790555060a08201518160040160016101000a81548160ff02191690831515021790555060c08201518160040160026101000a81548173ffffffffffffffffffffffffffffffffffffffff021916908373ffffffffffffffffffffffffffffffffffffffff16021790555060e08201518160050160006101000a81548173ffffffffffffffffffffffffffffffffffffffff021916908373ffffffffffffffffffffffffffffffffffffffff16021790555050505b600081118015610e97575081604001516000600183610e72919061279a565b81548110610e8357610e8261234d565b5b906000526020600020906006020160020154105b156110af576000600182610eab919061279a565b81548110610ebc57610ebb61234d565b5b906000526020600020906006020160008281548110610ede57610edd61234d565b5b9060005260206000209060060201600082015481600001556001820160009054906101000a900473ffffffffffffffffffffffffffffffffffffffff168160010160006101000a81548173ffffffffffffffffffffffffffffffffffffffff021916908373ffffffffffffffffffffffffffffffffffffffff16021790555060028201548160020155600382015481600301556004820160009054906101000a900460ff168160040160006101000a81548160ff0219169083151502179055506004820160019054906101000a900460ff168160040160016101000a81548160ff0219169083151502179055506004820160029054906101000a900473ffffffffffffffffffffffffffffffffffffffff168160040160026101000a81548173ffffffffffffffffffffffffffffffffffffffff021916908373ffffffffffffffffffffffffffffffffffffffff1602179055506005820160009054906101000a900473ffffffffffffffffffffffffffffffffffffffff168160050160006101000a81548173ffffffffffffffffffffffffffffffffffffffff021916908373ffffffffffffffffffffffffffffffffffffffff16021790555090505080806110a7906127ce565b915050610e53565b81600082815481106110c4576110c361234d565b5b90600052602060002090600602016000820151816000015560208201518160010160006101000a81548173ffffffffffffffffffffffffffffffffffffffff021916908373ffffffffffffffffffffffffffffffffffffffff160217905550604082015181600201556060820151816003015560808201518160040160006101000a81548160ff02191690831515021790555060a08201518160040160016101000a81548160ff02191690831515021790555060c08201518160040160026101000a81548173ffffffffffffffffffffffffffffffffffffffff021916908373ffffffffffffffffffffffffffffffffffffffff16021790555060e08201518160050160006101000a81548173ffffffffffffffffffffffffffffffffffffffff021916908373ffffffffffffffffffffffffffffffffffffffff1602179055509050507f7d08f4cf911c2815777bfafd9f9035fe3c866687d8d0c84ad65f3592561c983b82604051611237919061216c565b60405180910390a15050565b60008082815481106112585761125761234d565b5b9060005260206000209060060201905060005b6001805490508110801561128e57508160040160009054906101000a900460ff16155b15611619576000600182815481106112a9576112a861234d565b5b9060005260206000209060060201905082600201548160020154111580156112e057508060040160009054906101000a900460ff16155b156116055760006112f982600301548560030154611f53565b9050600084600201548261130d91906127f7565b90508460040160029054906101000a900473ffffffffffffffffffffffffffffffffffffffff1673ffffffffffffffffffffffffffffffffffffffff166323b872dd8460010160009054906101000a900473ffffffffffffffffffffffffffffffffffffffff168760010160009054906101000a900473ffffffffffffffffffffffffffffffffffffffff16856040518463ffffffff1660e01b81526004016113b893929190612839565b6020604051808303816000875af11580156113d7573d6000803e3d6000fd5b505050506040513d601f19601f820116820180604052508101906113fb9190612885565b508460050160009054906101000a900473ffffffffffffffffffffffffffffffffffffffff1673ffffffffffffffffffffffffffffffffffffffff166323b872dd8660010160009054906101000a900473ffffffffffffffffffffffffffffffffffffffff168560010160009054906101000a900473ffffffffffffffffffffffffffffffffffffffff16846040518463ffffffff1660e01b81526004016114a593929190612839565b6020604051808303816000875af11580156114c4573d6000803e3d6000fd5b505050506040513d601f19601f820116820180604052508101906114e89190612885565b508185600301546114f9919061279a565b8560030181905550818360030154611511919061279a565b836003018190555060008560030154036115435760018560040160006101000a81548160ff0219169083151502179055505b600083600301540361156d5760018360040160006101000a81548160ff0219169083151502179055505b7fd27398173104982a30034dd18c4679e9b5e507fb2e5c94eeb0a2b9035b82f66c856000015484600001548760010160009054906101000a900473ffffffffffffffffffffffffffffffffffffffff168660010160009054906101000a900473ffffffffffffffffffffffffffffffffffffffff168960020154876040516115fa969594939291906128b2565b60405180910390a150505b5080806116119061260e565b91505061126b565b505050565b6000600180549050905060018290806001815401808255809150506001900390600052602060002090600602016000909190919091506000820151816000015560208201518160010160006101000a81548173ffffffffffffffffffffffffffffffffffffffff021916908373ffffffffffffffffffffffffffffffffffffffff160217905550604082015181600201556060820151816003015560808201518160040160006101000a81548160ff02191690831515021790555060a08201518160040160016101000a81548160ff02191690831515021790555060c08201518160040160026101000a81548173ffffffffffffffffffffffffffffffffffffffff021916908373ffffffffffffffffffffffffffffffffffffffff16021790555060e08201518160050160006101000a81548173ffffffffffffffffffffffffffffffffffffffff021916908373ffffffffffffffffffffffffffffffffffffffff16021790555050505b6000811180156117cd57508160400151600180836117a8919061279a565b815481106117b9576117b861234d565b5b906000526020600020906006020160020154115b156119e457600180826117e0919061279a565b815481106117f1576117f061234d565b5b9060005260206000209060060201600182815481106118135761181261234d565b5b9060005260206000209060060201600082015481600001556001820160009054906101000a900473ffffffffffffffffffffffffffffffffffffffff168160010160006101000a81548173ffffffffffffffffffffffffffffffffffffffff021916908373ffffffffffffffffffffffffffffffffffffffff16021790555060028201548160020155600382015481600301556004820160009054906101000a900460ff168160040160006101000a81548160ff0219169083151502179055506004820160019054906101000a900460ff168160040160016101000a81548160ff0219169083151502179055506004820160029054906101000a900473ffffffffffffffffffffffffffffffffffffffff168160040160026101000a81548173ffffffffffffffffffffffffffffffffffffffff021916908373ffffffffffffffffffffffffffffffffffffffff1602179055506005820160009054906101000a900473ffffffffffffffffffffffffffffffffffffffff168160050160006101000a81548173ffffffffffffffffffffffffffffffffffffffff021916908373ffffffffffffffffffffffffffffffffffffffff16021790555090505080806119dc906127ce565b91505061178a565b81600182815481106119f9576119f861234d565b5b90600052602060002090600602016000820151816000015560208201518160010160006101000a81548173ffffffffffffffffffffffffffffffffffffffff021916908373ffffffffffffffffffffffffffffffffffffffff160217905550604082015181600201556060820151816003015560808201518160040160006101000a81548160ff02191690831515021790555060a08201518160040160016101000a81548160ff02191690831515021790555060c08201518160040160026101000a81548173ffffffffffffffffffffffffffffffffffffffff021916908373ffffffffffffffffffffffffffffffffffffffff16021790555060e08201518160050160006101000a81548173ffffffffffffffffffffffffffffffffffffffff021916908373ffffffffffffffffffffffffffffffffffffffff1602179055509050507f7d08f4cf911c2815777bfafd9f9035fe3c866687d8d0c84ad65f3592561c983b82604051611b6c919061216c565b60405180910390a15050565b600060018281548110611b8e57611b8d61234d565b5b9060005260206000209060060201905060005b60008054905081108015611bc457508160040160009054906101000a900460ff16155b15611f4e576000808281548110611bde57611bdd61234d565b5b906000526020600020906006020190508260020154816002015410158015611c1557508060040160009054906101000a900460ff16155b15611f3a576000611c2e84600301548360030154611f53565b90506000846002015482611c4291906127f7565b90508460050160009054906101000a900473ffffffffffffffffffffffffffffffffffffffff1673ffffffffffffffffffffffffffffffffffffffff166323b872dd8460010160009054906101000a900473ffffffffffffffffffffffffffffffffffffffff168760010160009054906101000a900473ffffffffffffffffffffffffffffffffffffffff16846040518463ffffffff1660e01b8152600401611ced93929190612839565b6020604051808303816000875af1158015611d0c573d6000803e3d6000fd5b505050506040513d601f19601f82011682018060405250810190611d309190612885565b508460040160029054906101000a900473ffffffffffffffffffffffffffffffffffffffff1673ffffffffffffffffffffffffffffffffffffffff166323b872dd8660010160009054906101000a900473ffffffffffffffffffffffffffffffffffffffff168560010160009054906101000a900473ffffffffffffffffffffffffffffffffffffffff16856040518463ffffffff1660e01b8152600401611dda93929190612839565b6020604051808303816000875af1158015611df9573d6000803e3d6000fd5b505050506040513d601f19601f82011682018060405250810190611e1d9190612885565b50818360030154611e2e919061279a565b8360030181905550818560030154611e46919061279a565b85600301819055506000856003015403611e785760018560040160006101000a81548160ff0219169083151502179055505b6000836003015403611ea25760018360040160006101000a81548160ff0219169083151502179055505b7fd27398173104982a30034dd18c4679e9b5e507fb2e5c94eeb0a2b9035b82f66c836000015486600001548560010160009054906101000a900473ffffffffffffffffffffffffffffffffffffffff168860010160009054906101000a900473ffffffffffffffffffffffffffffffffffffffff16876002015487604051611f2f969594939291906128b2565b60405180910390a150505b508080611f469061260e565b915050611ba1565b505050565b6000818310611f625781611f64565b825b905092915050565b60405180610100016040528060008152602001600073ffffffffffffffffffffffffffffffffffffffff1681526020016000815260200160008152602001600015158152602001600015158152602001600073ffffffffffffffffffffffffffffffffffffffff168152602001600073ffffffffffffffffffffffffffffffffffffffff1681525090565b600080fd5b6000819050919050565b61200f81611ffc565b811461201a57600080fd5b50565b60008135905061202c81612006565b92915050565b60006020828403121561204857612047611ff7565b5b60006120568482850161201d565b91505092915050565b61206881611ffc565b82525050565b600073ffffffffffffffffffffffffffffffffffffffff82169050919050565b60006120998261206e565b9050919050565b6120a98161208e565b82525050565b60008115159050919050565b6120c4816120af565b82525050565b610100820160008201516120e1600085018261205f565b5060208201516120f460208501826120a0565b506040820151612107604085018261205f565b50606082015161211a606085018261205f565b50608082015161212d60808501826120bb565b5060a082015161214060a08501826120bb565b5060c082015161215360c08501826120a0565b5060e082015161216660e08501826120a0565b50505050565b60006101008201905061218260008301846120ca565b92915050565b61219181611ffc565b82525050565b6121a08161208e565b82525050565b6121af816120af565b82525050565b6000610100820190506121cb600083018b612188565b6121d8602083018a612197565b6121e56040830189612188565b6121f26060830188612188565b6121ff60808301876121a6565b61220c60a08301866121a6565b61221960c0830185612197565b61222660e0830184612197565b9998505050505050505050565b61223c816120af565b811461224757600080fd5b50565b60008135905061225981612233565b92915050565b6000806040838503121561227657612275611ff7565b5b60006122848582860161201d565b92505060206122958582860161224a565b9150509250929050565b60006020820190506122b46000830184612188565b92915050565b6122c38161208e565b81146122ce57600080fd5b50565b6000813590506122e0816122ba565b92915050565b60008060008060808587031215612300576122ff611ff7565b5b600061230e8782880161201d565b945050602061231f8782880161201d565b9350506040612330878288016122d1565b9250506060612341878288016122d1565b91505092959194509250565b7f4e487b7100000000000000000000000000000000000000000000000000000000600052603260045260246000fd5b600082825260208201905092915050565b7f4e6f742074726164657200000000000000000000000000000000000000000000600082015250565b60006123c3600a8361237c565b91506123ce8261238d565b602082019050919050565b600060208201905081810360008301526123f2816123b6565b9050919050565b600060608201905061240e6000830186612188565b61241b6020830185612197565b61242860408301846121a6565b949350505050565b7f5072696365206d7573742062652067726561746572207468616e207a65726f00600082015250565b6000612466601f8361237c565b915061247182612430565b602082019050919050565b6000602082019050818103600083015261249581612459565b9050919050565b7f5175616e74697479206d7573742062652067726561746572207468616e207a6560008201527f726f000000000000000000000000000000000000000000000000000000000000602082015250565b60006124f860228361237c565b91506125038261249c565b604082019050919050565b60006020820190508181036000830152612527816124eb565b9050919050565b60006080820190506125436000830187612188565b6125506020830186612188565b61255d6040830185612197565b61256a6060830184612197565b95945050505050565b7f427579204f72646572206964206f7574206f662072616e676500000000000000600082015250565b60006125a960198361237c565b91506125b482612573565b602082019050919050565b600060208201905081810360008301526125d88161259c565b9050919050565b7f4e487b7100000000000000000000000000000000000000000000000000000000600052601160045260246000fd5b600061261982611ffc565b91507fffffffffffffffffffffffffffffffffffffffffffffffffffffffffffffffff820361264b5761264a6125df565b5b600182019050919050565b7f427579204f72646572206e6f7420666f756e6400000000000000000000000000600082015250565b600061268c60138361237c565b915061269782612656565b602082019050919050565b600060208201905081810360008301526126bb8161267f565b9050919050565b7f53656c6c204f72646572206964206f7574206f662072616e6765000000000000600082015250565b60006126f8601a8361237c565b9150612703826126c2565b602082019050919050565b60006020820190508181036000830152612727816126eb565b9050919050565b7f53656c6c204f72646572206e6f7420666f756e64000000000000000000000000600082015250565b600061276460148361237c565b915061276f8261272e565b602082019050919050565b6000602082019050818103600083015261279381612757565b9050919050565b60006127a582611ffc565b91506127b083611ffc565b92508282039050818111156127c8576127c76125df565b5b92915050565b60006127d982611ffc565b9150600082036127ec576127eb6125df565b5b600182039050919050565b600061280282611ffc565b915061280d83611ffc565b925082820261281b81611ffc565b91508282048414831517612832576128316125df565b5b5092915050565b600060608201905061284e6000830186612197565b61285b6020830185612197565b6128686040830184612188565b949350505050565b60008151905061287f81612233565b92915050565b60006020828403121561289b5761289a611ff7565b5b60006128a984828501612870565b91505092915050565b600060c0820190506128c76000830189612188565b6128d46020830188612188565b6128e16040830187612197565b6128ee6060830186612197565b6128fb6080830185612188565b61290860a0830184612188565b97965050505050505056fea264697066735822122043eab5df34c1a9d3271489ea4b8d368e15757fb003e774d375a261aeb767c39964736f6c63430008140033",
  "linkReferences": {},
  "deployedLinkReferences": {}
}