{
  "_format": "hh-sol-artifact-1",
  "contractName": "Orderbook",
  "sourceName": "contracts/Orderbook.sol",
  "abi": [
    {
      "anonymous": false,
      "inputs": [
        {
          "components": [
            {
              "internalType": "uint256",
              "name": "id",
              "type": "uint256"
            },
            {
              "internalType": "address",
              "name": "wallet",
              "type": "address"
            },
            {
              "internalType": "uint256",
              "name": "price",
              "type": "uint256"
            },
            {
              "internalType": "uint256",
              "name": "quantity",
              "type": "uint256"
            },
            {
              "internalType": "bool",
              "name": "isFilled",
              "type": "bool"
            },
            {
              "internalType": "bool",
              "name": "isbuyOrder",
              "type": "bool"
            },
            {
              "internalType": "address",
              "name": "baseToken",
              "type": "address"
            },
            {
              "internalType": "address",
              "name": "quoteToken",
              "type": "address"
            }
          ],
          "indexed": false,
          "internalType": "struct Orderbook.Order",
          "name": "order",
          "type": "tuple"
        }
      ],
      "name": "Inserted",
      "type": "event"
    },
    {
      "anonymous": false,
      "inputs": [
        {
          "indexed": false,
          "internalType": "uint256",
          "name": "OrderId",
          "type": "uint256"
        },
        {
          "indexed": false,
          "internalType": "address",
          "name": "wallet",
          "type": "address"
        },
        {
          "indexed": false,
          "internalType": "bool",
          "name": "isBuyOrder",
          "type": "bool"
        }
      ],
      "name": "OrderCancelled",
      "type": "event"
    },
    {
      "anonymous": false,
      "inputs": [
        {
          "indexed": false,
          "internalType": "uint256",
          "name": "buyOrderID",
          "type": "uint256"
        },
        {
          "indexed": false,
          "internalType": "uint256",
          "name": "sellOrderID",
          "type": "uint256"
        },
        {
          "indexed": false,
          "internalType": "address",
          "name": "buyerWallet",
          "type": "address"
        },
        {
          "indexed": false,
          "internalType": "address",
          "name": "sellerWallet",
          "type": "address"
        },
        {
          "indexed": false,
          "internalType": "uint256",
          "name": "price",
          "type": "uint256"
        },
        {
          "indexed": false,
          "internalType": "uint256",
          "name": "quantity",
          "type": "uint256"
        }
      ],
      "name": "TradeMatched",
      "type": "event"
    },
    {
      "anonymous": false,
      "inputs": [
        {
          "indexed": false,
          "internalType": "uint256",
          "name": "price",
          "type": "uint256"
        },
        {
          "indexed": false,
          "internalType": "uint256",
          "name": "quantity",
          "type": "uint256"
        },
        {
          "indexed": false,
          "internalType": "address",
          "name": "baseToken",
          "type": "address"
        },
        {
          "indexed": false,
          "internalType": "address",
          "name": "quoteToken",
          "type": "address"
        }
      ],
      "name": "Traded",
      "type": "event"
    },
    {
      "inputs": [
        {
          "internalType": "uint256",
          "name": "_price",
          "type": "uint256"
        },
        {
          "internalType": "uint256",
          "name": "_quantity",
          "type": "uint256"
        },
        {
          "internalType": "address",
          "name": "_baseToken",
          "type": "address"
        },
        {
          "internalType": "address",
          "name": "_quoteToken",
          "type": "address"
        }
      ],
      "name": "buyLimitOrder",
      "outputs": [],
      "stateMutability": "nonpayable",
      "type": "function"
    },
    {
      "inputs": [
        {
          "internalType": "uint256",
          "name": "",
          "type": "uint256"
        }
      ],
      "name": "buyOrders",
      "outputs": [
        {
          "internalType": "uint256",
          "name": "id",
          "type": "uint256"
        },
        {
          "internalType": "address",
          "name": "wallet",
          "type": "address"
        },
        {
          "internalType": "uint256",
          "name": "price",
          "type": "uint256"
        },
        {
          "internalType": "uint256",
          "name": "quantity",
          "type": "uint256"
        },
        {
          "internalType": "bool",
          "name": "isFilled",
          "type": "bool"
        },
        {
          "internalType": "bool",
          "name": "isbuyOrder",
          "type": "bool"
        },
        {
          "internalType": "address",
          "name": "baseToken",
          "type": "address"
        },
        {
          "internalType": "address",
          "name": "quoteToken",
          "type": "address"
        }
      ],
      "stateMutability": "view",
      "type": "function"
    },
    {
      "inputs": [
        {
          "internalType": "uint256",
          "name": "orderid",
          "type": "uint256"
        },
        {
          "internalType": "bool",
          "name": "isbuyOrder",
          "type": "bool"
        }
      ],
      "name": "cancelOrders",
      "outputs": [],
      "stateMutability": "nonpayable",
      "type": "function"
    },
    {
      "inputs": [
        {
          "internalType": "uint256",
          "name": "index",
          "type": "uint256"
        }
      ],
      "name": "getBuyArray",
      "outputs": [
        {
          "components": [
            {
              "internalType": "uint256",
              "name": "id",
              "type": "uint256"
            },
            {
              "internalType": "address",
              "name": "wallet",
              "type": "address"
            },
            {
              "internalType": "uint256",
              "name": "price",
              "type": "uint256"
            },
            {
              "internalType": "uint256",
              "name": "quantity",
              "type": "uint256"
            },
            {
              "internalType": "bool",
              "name": "isFilled",
              "type": "bool"
            },
            {
              "internalType": "bool",
              "name": "isbuyOrder",
              "type": "bool"
            },
            {
              "internalType": "address",
              "name": "baseToken",
              "type": "address"
            },
            {
              "internalType": "address",
              "name": "quoteToken",
              "type": "address"
            }
          ],
          "internalType": "struct Orderbook.Order",
          "name": "",
          "type": "tuple"
        }
      ],
      "stateMutability": "view",
      "type": "function"
    },
    {
      "inputs": [
        {
          "internalType": "uint256",
          "name": "index",
          "type": "uint256"
        }
      ],
      "name": "getsellArray",
      "outputs": [
        {
          "components": [
            {
              "internalType": "uint256",
              "name": "id",
              "type": "uint256"
            },
            {
              "internalType": "address",
              "name": "wallet",
              "type": "address"
            },
            {
              "internalType": "uint256",
              "name": "price",
              "type": "uint256"
            },
            {
              "internalType": "uint256",
              "name": "quantity",
              "type": "uint256"
            },
            {
              "internalType": "bool",
              "name": "isFilled",
              "type": "bool"
            },
            {
              "internalType": "bool",
              "name": "isbuyOrder",
              "type": "bool"
            },
            {
              "internalType": "address",
              "name": "baseToken",
              "type": "address"
            },
            {
              "internalType": "address",
              "name": "quoteToken",
              "type": "address"
            }
          ],
          "internalType": "struct Orderbook.Order",
          "name": "",
          "type": "tuple"
        }
      ],
      "stateMutability": "view",
      "type": "function"
    },
    {
      "inputs": [
        {
          "internalType": "uint256",
          "name": "_price",
          "type": "uint256"
        },
        {
          "internalType": "uint256",
          "name": "_quantity",
          "type": "uint256"
        },
        {
          "internalType": "address",
          "name": "_baseToken",
          "type": "address"
        },
        {
          "internalType": "address",
          "name": "_quoteToken",
          "type": "address"
        }
      ],
      "name": "sellLimitOrder",
      "outputs": [],
      "stateMutability": "nonpayable",
      "type": "function"
    },
    {
      "inputs": [
        {
          "internalType": "uint256",
          "name": "",
          "type": "uint256"
        }
      ],
      "name": "sellOrders",
      "outputs": [
        {
          "internalType": "uint256",
          "name": "id",
          "type": "uint256"
        },
        {
          "internalType": "address",
          "name": "wallet",
          "type": "address"
        },
        {
          "internalType": "uint256",
          "name": "price",
          "type": "uint256"
        },
        {
          "internalType": "uint256",
          "name": "quantity",
          "type": "uint256"
        },
        {
          "internalType": "bool",
          "name": "isFilled",
          "type": "bool"
        },
        {
          "internalType": "bool",
          "name": "isbuyOrder",
          "type": "bool"
        },
        {
          "internalType": "address",
          "name": "baseToken",
          "type": "address"
        },
        {
          "internalType": "address",
          "name": "quoteToken",
          "type": "address"
        }
      ],
      "stateMutability": "view",
      "type": "function"
    }
  ],
  "bytecode": "0x608060405234801561001057600080fd5b506128c3806100206000396000f3fe608060405234801561001057600080fd5b506004361061007d5760003560e01c80634a8393f31161005b5780634a8393f3146101055780639cb6d8f41461013c578063a0c16be714610158578063e2b1932b146101885761007d565b8063095c8f911461008257806335cea288146100b25780633b35850c146100e9575b600080fd5b61009c60048036038101906100979190611fc7565b6101a4565b6040516100a99190612101565b60405180910390f35b6100cc60048036038101906100c79190611fc7565b610337565b6040516100e098979695949392919061214a565b60405180910390f35b61010360048036038101906100fe91906121f4565b610409565b005b61011f600480360381019061011a9190611fc7565b610564565b60405161013398979695949392919061214a565b60405180910390f35b61015660048036038101906101519190612260565b610636565b005b610172600480360381019061016d9190611fc7565b6107ae565b60405161017f9190612101565b60405180910390f35b6101a2600480360381019061019d9190612260565b610941565b005b6101ac611f01565b600182815481106101c0576101bf6122c7565b5b906000526020600020906006020160405180610100016040529081600082015481526020016001820160009054906101000a900473ffffffffffffffffffffffffffffffffffffffff1673ffffffffffffffffffffffffffffffffffffffff1673ffffffffffffffffffffffffffffffffffffffff16815260200160028201548152602001600382015481526020016004820160009054906101000a900460ff161515151581526020016004820160019054906101000a900460ff161515151581526020016004820160029054906101000a900473ffffffffffffffffffffffffffffffffffffffff1673ffffffffffffffffffffffffffffffffffffffff1673ffffffffffffffffffffffffffffffffffffffff1681526020016005820160009054906101000a900473ffffffffffffffffffffffffffffffffffffffff1673ffffffffffffffffffffffffffffffffffffffff1673ffffffffffffffffffffffffffffffffffffffff16815250509050919050565b6000818154811061034757600080fd5b90600052602060002090600602016000915090508060000154908060010160009054906101000a900473ffffffffffffffffffffffffffffffffffffffff16908060020154908060030154908060040160009054906101000a900460ff16908060040160019054906101000a900460ff16908060040160029054906101000a900473ffffffffffffffffffffffffffffffffffffffff16908060050160009054906101000a900473ffffffffffffffffffffffffffffffffffffffff16905088565b6000600115158215150361044857600061042284610aba565b81548110610433576104326122c7565b5b90600052602060002090600602019050610475565b600161045384610b9b565b81548110610464576104636122c7565b5b906000526020600020906006020190505b3373ffffffffffffffffffffffffffffffffffffffff168160010160009054906101000a900473ffffffffffffffffffffffffffffffffffffffff1673ffffffffffffffffffffffffffffffffffffffff1614610507576040517f08c379a00000000000000000000000000000000000000000000000000000000081526004016104fe90612353565b60405180910390fd5b60018160040160006101000a81548160ff0219169083151502179055507f50ed996dde1c344c62fca456bf7fd7355794f59b86cb69b059dd9cef69b3ca5d83338460405161055793929190612373565b60405180910390a1505050565b6001818154811061057457600080fd5b90600052602060002090600602016000915090508060000154908060010160009054906101000a900473ffffffffffffffffffffffffffffffffffffffff16908060020154908060030154908060040160009054906101000a900460ff16908060040160019054906101000a900460ff16908060040160029054906101000a900473ffffffffffffffffffffffffffffffffffffffff16908060050160009054906101000a900473ffffffffffffffffffffffffffffffffffffffff16905088565b60008411610679576040517f08c379a0000000000000000000000000000000000000000000000000000000008152600401610670906123f6565b60405180910390fd5b600083116106bc576040517f08c379a00000000000000000000000000000000000000000000000000000000081526004016106b390612488565b60405180910390fd5b60008080549050905060006040518061010001604052808381526020013373ffffffffffffffffffffffffffffffffffffffff1681526020018781526020018681526020016000151581526020016001151581526020018573ffffffffffffffffffffffffffffffffffffffff1681526020018473ffffffffffffffffffffffffffffffffffffffff16815250905061075481610c7d565b6107696107648260000151610aba565b6111d8565b7f33d96411289395f0842596054abe6cf2802911ed295366531e4bd7b1a78b52e98686868660405161079e94939291906124a8565b60405180910390a1505050505050565b6107b6611f01565b600082815481106107ca576107c96122c7565b5b906000526020600020906006020160405180610100016040529081600082015481526020016001820160009054906101000a900473ffffffffffffffffffffffffffffffffffffffff1673ffffffffffffffffffffffffffffffffffffffff1673ffffffffffffffffffffffffffffffffffffffff16815260200160028201548152602001600382015481526020016004820160009054906101000a900460ff161515151581526020016004820160019054906101000a900460ff161515151581526020016004820160029054906101000a900473ffffffffffffffffffffffffffffffffffffffff1673ffffffffffffffffffffffffffffffffffffffff1673ffffffffffffffffffffffffffffffffffffffff1681526020016005820160009054906101000a900473ffffffffffffffffffffffffffffffffffffffff1673ffffffffffffffffffffffffffffffffffffffff1673ffffffffffffffffffffffffffffffffffffffff16815250509050919050565b60008411610984576040517f08c379a000000000000000000000000000000000000000000000000000000000815260040161097b906123f6565b60405180910390fd5b600083116109c7576040517f08c379a00000000000000000000000000000000000000000000000000000000081526004016109be90612488565b60405180910390fd5b6000600180549050905060006040518061010001604052808381526020013373ffffffffffffffffffffffffffffffffffffffff1681526020018781526020018681526020016000151581526020016000151581526020018573ffffffffffffffffffffffffffffffffffffffff1681526020018473ffffffffffffffffffffffffffffffffffffffff168152509050610a60816115b3565b610a75610a708260000151610b9b565b611b0d565b7f33d96411289395f0842596054abe6cf2802911ed295366531e4bd7b1a78b52e986868686604051610aaa94939291906124a8565b60405180910390a1505050505050565b600080805490508210610b02576040517f08c379a0000000000000000000000000000000000000000000000000000000008152600401610af990612539565b60405180910390fd5b60005b600080549050811015610b5a578260008281548110610b2757610b266122c7565b5b90600052602060002090600602016000015403610b475780915050610b96565b8080610b5290612588565b915050610b05565b506040517f08c379a0000000000000000000000000000000000000000000000000000000008152600401610b8d9061261c565b60405180910390fd5b919050565b60006001805490508210610be4576040517f08c379a0000000000000000000000000000000000000000000000000000000008152600401610bdb90612688565b60405180910390fd5b60005b600180549050811015610c3c578260018281548110610c0957610c086122c7565b5b90600052602060002090600602016000015403610c295780915050610c78565b8080610c3490612588565b915050610be7565b506040517f08c379a0000000000000000000000000000000000000000000000000000000008152600401610c6f906126f4565b60405180910390fd5b919050565b60008080549050905060008290806001815401808255809150506001900390600052602060002090600602016000909190919091506000820151816000015560208201518160010160006101000a81548173ffffffffffffffffffffffffffffffffffffffff021916908373ffffffffffffffffffffffffffffffffffffffff160217905550604082015181600201556060820151816003015560808201518160040160006101000a81548160ff02191690831515021790555060a08201518160040160016101000a81548160ff02191690831515021790555060c08201518160040160026101000a81548173ffffffffffffffffffffffffffffffffffffffff021916908373ffffffffffffffffffffffffffffffffffffffff16021790555060e08201518160050160006101000a81548173ffffffffffffffffffffffffffffffffffffffff021916908373ffffffffffffffffffffffffffffffffffffffff16021790555050505b600081118015610e2c575081604001516000600183610e079190612714565b81548110610e1857610e176122c7565b5b906000526020600020906006020160020154105b15611044576000600182610e409190612714565b81548110610e5157610e506122c7565b5b906000526020600020906006020160008281548110610e7357610e726122c7565b5b9060005260206000209060060201600082015481600001556001820160009054906101000a900473ffffffffffffffffffffffffffffffffffffffff168160010160006101000a81548173ffffffffffffffffffffffffffffffffffffffff021916908373ffffffffffffffffffffffffffffffffffffffff16021790555060028201548160020155600382015481600301556004820160009054906101000a900460ff168160040160006101000a81548160ff0219169083151502179055506004820160019054906101000a900460ff168160040160016101000a81548160ff0219169083151502179055506004820160029054906101000a900473ffffffffffffffffffffffffffffffffffffffff168160040160026101000a81548173ffffffffffffffffffffffffffffffffffffffff021916908373ffffffffffffffffffffffffffffffffffffffff1602179055506005820160009054906101000a900473ffffffffffffffffffffffffffffffffffffffff168160050160006101000a81548173ffffffffffffffffffffffffffffffffffffffff021916908373ffffffffffffffffffffffffffffffffffffffff160217905550905050808061103c90612748565b915050610de8565b8160008281548110611059576110586122c7565b5b90600052602060002090600602016000820151816000015560208201518160010160006101000a81548173ffffffffffffffffffffffffffffffffffffffff021916908373ffffffffffffffffffffffffffffffffffffffff160217905550604082015181600201556060820151816003015560808201518160040160006101000a81548160ff02191690831515021790555060a08201518160040160016101000a81548160ff02191690831515021790555060c08201518160040160026101000a81548173ffffffffffffffffffffffffffffffffffffffff021916908373ffffffffffffffffffffffffffffffffffffffff16021790555060e08201518160050160006101000a81548173ffffffffffffffffffffffffffffffffffffffff021916908373ffffffffffffffffffffffffffffffffffffffff1602179055509050507f7d08f4cf911c2815777bfafd9f9035fe3c866687d8d0c84ad65f3592561c983b826040516111cc9190612101565b60405180910390a15050565b60008082815481106111ed576111ec6122c7565b5b9060005260206000209060060201905060005b6001805490508110801561122357508160040160009054906101000a900460ff16155b156115ae5760006001828154811061123e5761123d6122c7565b5b90600052602060002090600602019050826002015481600201541115801561127557508060040160009054906101000a900460ff16155b1561159a57600061128e82600301548560030154611ee8565b905060008460020154826112a29190612771565b90508460040160029054906101000a900473ffffffffffffffffffffffffffffffffffffffff1673ffffffffffffffffffffffffffffffffffffffff166323b872dd8460010160009054906101000a900473ffffffffffffffffffffffffffffffffffffffff168760010160009054906101000a900473ffffffffffffffffffffffffffffffffffffffff16856040518463ffffffff1660e01b815260040161134d939291906127b3565b6020604051808303816000875af115801561136c573d6000803e3d6000fd5b505050506040513d601f19601f8201168201806040525081019061139091906127ff565b508460050160009054906101000a900473ffffffffffffffffffffffffffffffffffffffff1673ffffffffffffffffffffffffffffffffffffffff166323b872dd8660010160009054906101000a900473ffffffffffffffffffffffffffffffffffffffff168560010160009054906101000a900473ffffffffffffffffffffffffffffffffffffffff16846040518463ffffffff1660e01b815260040161143a939291906127b3565b6020604051808303816000875af1158015611459573d6000803e3d6000fd5b505050506040513d601f19601f8201168201806040525081019061147d91906127ff565b5081856003015461148e9190612714565b85600301819055508183600301546114a69190612714565b836003018190555060008560030154036114d85760018560040160006101000a81548160ff0219169083151502179055505b60008360030154036115025760018360040160006101000a81548160ff0219169083151502179055505b7fd27398173104982a30034dd18c4679e9b5e507fb2e5c94eeb0a2b9035b82f66c856000015484600001548760010160009054906101000a900473ffffffffffffffffffffffffffffffffffffffff168660010160009054906101000a900473ffffffffffffffffffffffffffffffffffffffff1689600201548760405161158f9695949392919061282c565b60405180910390a150505b5080806115a690612588565b915050611200565b505050565b6000600180549050905060018290806001815401808255809150506001900390600052602060002090600602016000909190919091506000820151816000015560208201518160010160006101000a81548173ffffffffffffffffffffffffffffffffffffffff021916908373ffffffffffffffffffffffffffffffffffffffff160217905550604082015181600201556060820151816003015560808201518160040160006101000a81548160ff02191690831515021790555060a08201518160040160016101000a81548160ff02191690831515021790555060c08201518160040160026101000a81548173ffffffffffffffffffffffffffffffffffffffff021916908373ffffffffffffffffffffffffffffffffffffffff16021790555060e08201518160050160006101000a81548173ffffffffffffffffffffffffffffffffffffffff021916908373ffffffffffffffffffffffffffffffffffffffff16021790555050505b600081118015611762575081604001516001808361173d9190612714565b8154811061174e5761174d6122c7565b5b906000526020600020906006020160020154115b1561197957600180826117759190612714565b81548110611786576117856122c7565b5b9060005260206000209060060201600182815481106117a8576117a76122c7565b5b9060005260206000209060060201600082015481600001556001820160009054906101000a900473ffffffffffffffffffffffffffffffffffffffff168160010160006101000a81548173ffffffffffffffffffffffffffffffffffffffff021916908373ffffffffffffffffffffffffffffffffffffffff16021790555060028201548160020155600382015481600301556004820160009054906101000a900460ff168160040160006101000a81548160ff0219169083151502179055506004820160019054906101000a900460ff168160040160016101000a81548160ff0219169083151502179055506004820160029054906101000a900473ffffffffffffffffffffffffffffffffffffffff168160040160026101000a81548173ffffffffffffffffffffffffffffffffffffffff021916908373ffffffffffffffffffffffffffffffffffffffff1602179055506005820160009054906101000a900473ffffffffffffffffffffffffffffffffffffffff168160050160006101000a81548173ffffffffffffffffffffffffffffffffffffffff021916908373ffffffffffffffffffffffffffffffffffffffff160217905550905050808061197190612748565b91505061171f565b816001828154811061198e5761198d6122c7565b5b90600052602060002090600602016000820151816000015560208201518160010160006101000a81548173ffffffffffffffffffffffffffffffffffffffff021916908373ffffffffffffffffffffffffffffffffffffffff160217905550604082015181600201556060820151816003015560808201518160040160006101000a81548160ff02191690831515021790555060a08201518160040160016101000a81548160ff02191690831515021790555060c08201518160040160026101000a81548173ffffffffffffffffffffffffffffffffffffffff021916908373ffffffffffffffffffffffffffffffffffffffff16021790555060e08201518160050160006101000a81548173ffffffffffffffffffffffffffffffffffffffff021916908373ffffffffffffffffffffffffffffffffffffffff1602179055509050507f7d08f4cf911c2815777bfafd9f9035fe3c866687d8d0c84ad65f3592561c983b82604051611b019190612101565b60405180910390a15050565b600060018281548110611b2357611b226122c7565b5b9060005260206000209060060201905060005b60008054905081108015611b5957508160040160009054906101000a900460ff16155b15611ee3576000808281548110611b7357611b726122c7565b5b906000526020600020906006020190508260020154816002015410158015611baa57508060040160009054906101000a900460ff16155b15611ecf576000611bc384600301548360030154611ee8565b90506000846002015482611bd79190612771565b90508460050160009054906101000a900473ffffffffffffffffffffffffffffffffffffffff1673ffffffffffffffffffffffffffffffffffffffff166323b872dd8460010160009054906101000a900473ffffffffffffffffffffffffffffffffffffffff168760010160009054906101000a900473ffffffffffffffffffffffffffffffffffffffff16846040518463ffffffff1660e01b8152600401611c82939291906127b3565b6020604051808303816000875af1158015611ca1573d6000803e3d6000fd5b505050506040513d601f19601f82011682018060405250810190611cc591906127ff565b508460040160029054906101000a900473ffffffffffffffffffffffffffffffffffffffff1673ffffffffffffffffffffffffffffffffffffffff166323b872dd8660010160009054906101000a900473ffffffffffffffffffffffffffffffffffffffff168560010160009054906101000a900473ffffffffffffffffffffffffffffffffffffffff16856040518463ffffffff1660e01b8152600401611d6f939291906127b3565b6020604051808303816000875af1158015611d8e573d6000803e3d6000fd5b505050506040513d601f19601f82011682018060405250810190611db291906127ff565b50818360030154611dc39190612714565b8360030181905550818560030154611ddb9190612714565b85600301819055506000856003015403611e0d5760018560040160006101000a81548160ff0219169083151502179055505b6000836003015403611e375760018360040160006101000a81548160ff0219169083151502179055505b7fd27398173104982a30034dd18c4679e9b5e507fb2e5c94eeb0a2b9035b82f66c836000015486600001548560010160009054906101000a900473ffffffffffffffffffffffffffffffffffffffff168860010160009054906101000a900473ffffffffffffffffffffffffffffffffffffffff16876002015487604051611ec49695949392919061282c565b60405180910390a150505b508080611edb90612588565b915050611b36565b505050565b6000818310611ef75781611ef9565b825b905092915050565b60405180610100016040528060008152602001600073ffffffffffffffffffffffffffffffffffffffff1681526020016000815260200160008152602001600015158152602001600015158152602001600073ffffffffffffffffffffffffffffffffffffffff168152602001600073ffffffffffffffffffffffffffffffffffffffff1681525090565b600080fd5b6000819050919050565b611fa481611f91565b8114611faf57600080fd5b50565b600081359050611fc181611f9b565b92915050565b600060208284031215611fdd57611fdc611f8c565b5b6000611feb84828501611fb2565b91505092915050565b611ffd81611f91565b82525050565b600073ffffffffffffffffffffffffffffffffffffffff82169050919050565b600061202e82612003565b9050919050565b61203e81612023565b82525050565b60008115159050919050565b61205981612044565b82525050565b610100820160008201516120766000850182611ff4565b5060208201516120896020850182612035565b50604082015161209c6040850182611ff4565b5060608201516120af6060850182611ff4565b5060808201516120c26080850182612050565b5060a08201516120d560a0850182612050565b5060c08201516120e860c0850182612035565b5060e08201516120fb60e0850182612035565b50505050565b600061010082019050612117600083018461205f565b92915050565b61212681611f91565b82525050565b61213581612023565b82525050565b61214481612044565b82525050565b600061010082019050612160600083018b61211d565b61216d602083018a61212c565b61217a604083018961211d565b612187606083018861211d565b612194608083018761213b565b6121a160a083018661213b565b6121ae60c083018561212c565b6121bb60e083018461212c565b9998505050505050505050565b6121d181612044565b81146121dc57600080fd5b50565b6000813590506121ee816121c8565b92915050565b6000806040838503121561220b5761220a611f8c565b5b600061221985828601611fb2565b925050602061222a858286016121df565b9150509250929050565b61223d81612023565b811461224857600080fd5b50565b60008135905061225a81612234565b92915050565b6000806000806080858703121561227a57612279611f8c565b5b600061228887828801611fb2565b945050602061229987828801611fb2565b93505060406122aa8782880161224b565b92505060606122bb8782880161224b565b91505092959194509250565b7f4e487b7100000000000000000000000000000000000000000000000000000000600052603260045260246000fd5b600082825260208201905092915050565b7f4e6f742074726164657200000000000000000000000000000000000000000000600082015250565b600061233d600a836122f6565b915061234882612307565b602082019050919050565b6000602082019050818103600083015261236c81612330565b9050919050565b6000606082019050612388600083018661211d565b612395602083018561212c565b6123a2604083018461213b565b949350505050565b7f5072696365206d7573742062652067726561746572207468616e207a65726f00600082015250565b60006123e0601f836122f6565b91506123eb826123aa565b602082019050919050565b6000602082019050818103600083015261240f816123d3565b9050919050565b7f5175616e74697479206d7573742062652067726561746572207468616e207a6560008201527f726f000000000000000000000000000000000000000000000000000000000000602082015250565b60006124726022836122f6565b915061247d82612416565b604082019050919050565b600060208201905081810360008301526124a181612465565b9050919050565b60006080820190506124bd600083018761211d565b6124ca602083018661211d565b6124d7604083018561212c565b6124e4606083018461212c565b95945050505050565b7f427579204f72646572206964206f7574206f662072616e676500000000000000600082015250565b60006125236019836122f6565b915061252e826124ed565b602082019050919050565b6000602082019050818103600083015261255281612516565b9050919050565b7f4e487b7100000000000000000000000000000000000000000000000000000000600052601160045260246000fd5b600061259382611f91565b91507fffffffffffffffffffffffffffffffffffffffffffffffffffffffffffffffff82036125c5576125c4612559565b5b600182019050919050565b7f427579204f72646572206e6f7420666f756e6400000000000000000000000000600082015250565b60006126066013836122f6565b9150612611826125d0565b602082019050919050565b60006020820190508181036000830152612635816125f9565b9050919050565b7f53656c6c204f72646572206964206f7574206f662072616e6765000000000000600082015250565b6000612672601a836122f6565b915061267d8261263c565b602082019050919050565b600060208201905081810360008301526126a181612665565b9050919050565b7f53656c6c204f72646572206e6f7420666f756e64000000000000000000000000600082015250565b60006126de6014836122f6565b91506126e9826126a8565b602082019050919050565b6000602082019050818103600083015261270d816126d1565b9050919050565b600061271f82611f91565b915061272a83611f91565b925082820390508181111561274257612741612559565b5b92915050565b600061275382611f91565b91506000820361276657612765612559565b5b600182039050919050565b600061277c82611f91565b915061278783611f91565b925082820261279581611f91565b915082820484148315176127ac576127ab612559565b5b5092915050565b60006060820190506127c8600083018661212c565b6127d5602083018561212c565b6127e2604083018461211d565b949350505050565b6000815190506127f9816121c8565b92915050565b60006020828403121561281557612814611f8c565b5b6000612823848285016127ea565b91505092915050565b600060c082019050612841600083018961211d565b61284e602083018861211d565b61285b604083018761212c565b612868606083018661212c565b612875608083018561211d565b61288260a083018461211d565b97965050505050505056fea264697066735822122048e3af5f9bbb85ab5a43e869c062e257de594a3f7485059b8281ed48ab11cbb564736f6c63430008140033",
  "linkReferences": {},
  "deployedLinkReferences": {}
}