{
  "_format": "hh-sol-artifact-1",
  "contractName": "Orderbook",
  "sourceName": "contracts/Orderbook.sol",
  "abi": [
    {
      "anonymous": false,
      "inputs": [
        {
          "indexed": false,
          "internalType": "uint256",
          "name": "OrderId",
          "type": "uint256"
        },
        {
          "indexed": false,
          "internalType": "address",
          "name": "wallet",
          "type": "address"
        },
        {
          "indexed": false,
          "internalType": "bool",
          "name": "isBuyOrder",
          "type": "bool"
        }
      ],
      "name": "OrderCancelled",
      "type": "event"
    },
    {
      "anonymous": false,
      "inputs": [
        {
          "indexed": false,
          "internalType": "uint256",
          "name": "buyOrderID",
          "type": "uint256"
        },
        {
          "indexed": false,
          "internalType": "uint256",
          "name": "sellOrderID",
          "type": "uint256"
        },
        {
          "indexed": false,
          "internalType": "address",
          "name": "buyerWallet",
          "type": "address"
        },
        {
          "indexed": false,
          "internalType": "address",
          "name": "sellerWallet",
          "type": "address"
        },
        {
          "indexed": false,
          "internalType": "uint256",
          "name": "price",
          "type": "uint256"
        },
        {
          "indexed": false,
          "internalType": "uint256",
          "name": "quantity",
          "type": "uint256"
        }
      ],
      "name": "TradeMatched",
      "type": "event"
    },
    {
      "anonymous": false,
      "inputs": [
        {
          "indexed": false,
          "internalType": "uint256",
          "name": "price",
          "type": "uint256"
        },
        {
          "indexed": false,
          "internalType": "uint256",
          "name": "quantity",
          "type": "uint256"
        },
        {
          "indexed": false,
          "internalType": "address",
          "name": "baseToken",
          "type": "address"
        },
        {
          "indexed": false,
          "internalType": "address",
          "name": "quoteToken",
          "type": "address"
        }
      ],
      "name": "Traded",
      "type": "event"
    },
    {
      "inputs": [
        {
          "internalType": "uint256",
          "name": "_price",
          "type": "uint256"
        },
        {
          "internalType": "uint256",
          "name": "_quantity",
          "type": "uint256"
        },
        {
          "internalType": "address",
          "name": "_baseToken",
          "type": "address"
        },
        {
          "internalType": "address",
          "name": "_quoteToken",
          "type": "address"
        }
      ],
      "name": "buyLimitOrder",
      "outputs": [],
      "stateMutability": "nonpayable",
      "type": "function"
    },
    {
      "inputs": [
        {
          "internalType": "uint256",
          "name": "",
          "type": "uint256"
        }
      ],
      "name": "buyOrders",
      "outputs": [
        {
          "internalType": "uint256",
          "name": "id",
          "type": "uint256"
        },
        {
          "internalType": "address",
          "name": "wallet",
          "type": "address"
        },
        {
          "internalType": "uint256",
          "name": "price",
          "type": "uint256"
        },
        {
          "internalType": "uint256",
          "name": "quantity",
          "type": "uint256"
        },
        {
          "internalType": "bool",
          "name": "isFilled",
          "type": "bool"
        },
        {
          "internalType": "bool",
          "name": "isbuyOrder",
          "type": "bool"
        },
        {
          "internalType": "address",
          "name": "baseToken",
          "type": "address"
        },
        {
          "internalType": "address",
          "name": "quoteToken",
          "type": "address"
        }
      ],
      "stateMutability": "view",
      "type": "function"
    },
    {
      "inputs": [
        {
          "internalType": "uint256",
          "name": "orderid",
          "type": "uint256"
        },
        {
          "internalType": "bool",
          "name": "isbuyOrder",
          "type": "bool"
        }
      ],
      "name": "cancelOrders",
      "outputs": [],
      "stateMutability": "nonpayable",
      "type": "function"
    },
    {
      "inputs": [],
      "name": "getBuyArray",
      "outputs": [
        {
          "components": [
            {
              "internalType": "uint256",
              "name": "id",
              "type": "uint256"
            },
            {
              "internalType": "address",
              "name": "wallet",
              "type": "address"
            },
            {
              "internalType": "uint256",
              "name": "price",
              "type": "uint256"
            },
            {
              "internalType": "uint256",
              "name": "quantity",
              "type": "uint256"
            },
            {
              "internalType": "bool",
              "name": "isFilled",
              "type": "bool"
            },
            {
              "internalType": "bool",
              "name": "isbuyOrder",
              "type": "bool"
            },
            {
              "internalType": "address",
              "name": "baseToken",
              "type": "address"
            },
            {
              "internalType": "address",
              "name": "quoteToken",
              "type": "address"
            }
          ],
          "internalType": "struct Orderbook.Order[]",
          "name": "",
          "type": "tuple[]"
        }
      ],
      "stateMutability": "view",
      "type": "function"
    },
    {
      "inputs": [],
      "name": "getsellArray",
      "outputs": [
        {
          "components": [
            {
              "internalType": "uint256",
              "name": "id",
              "type": "uint256"
            },
            {
              "internalType": "address",
              "name": "wallet",
              "type": "address"
            },
            {
              "internalType": "uint256",
              "name": "price",
              "type": "uint256"
            },
            {
              "internalType": "uint256",
              "name": "quantity",
              "type": "uint256"
            },
            {
              "internalType": "bool",
              "name": "isFilled",
              "type": "bool"
            },
            {
              "internalType": "bool",
              "name": "isbuyOrder",
              "type": "bool"
            },
            {
              "internalType": "address",
              "name": "baseToken",
              "type": "address"
            },
            {
              "internalType": "address",
              "name": "quoteToken",
              "type": "address"
            }
          ],
          "internalType": "struct Orderbook.Order[]",
          "name": "",
          "type": "tuple[]"
        }
      ],
      "stateMutability": "view",
      "type": "function"
    },
    {
      "inputs": [
        {
          "internalType": "uint256",
          "name": "_price",
          "type": "uint256"
        },
        {
          "internalType": "uint256",
          "name": "_quantity",
          "type": "uint256"
        },
        {
          "internalType": "address",
          "name": "_baseToken",
          "type": "address"
        },
        {
          "internalType": "address",
          "name": "_quoteToken",
          "type": "address"
        }
      ],
      "name": "sellLimitOrder",
      "outputs": [],
      "stateMutability": "nonpayable",
      "type": "function"
    },
    {
      "inputs": [
        {
          "internalType": "uint256",
          "name": "",
          "type": "uint256"
        }
      ],
      "name": "sellOrders",
      "outputs": [
        {
          "internalType": "uint256",
          "name": "id",
          "type": "uint256"
        },
        {
          "internalType": "address",
          "name": "wallet",
          "type": "address"
        },
        {
          "internalType": "uint256",
          "name": "price",
          "type": "uint256"
        },
        {
          "internalType": "uint256",
          "name": "quantity",
          "type": "uint256"
        },
        {
          "internalType": "bool",
          "name": "isFilled",
          "type": "bool"
        },
        {
          "internalType": "bool",
          "name": "isbuyOrder",
          "type": "bool"
        },
        {
          "internalType": "address",
          "name": "baseToken",
          "type": "address"
        },
        {
          "internalType": "address",
          "name": "quoteToken",
          "type": "address"
        }
      ],
      "stateMutability": "view",
      "type": "function"
    }
  ],
  "bytecode": "0x608060405234801561001057600080fd5b506128a2806100206000396000f3fe608060405234801561001057600080fd5b506004361061007d5760003560e01c80633b35850c1161005b5780633b35850c146100f55780634a8393f3146101115780639cb6d8f414610148578063e2b1932b146101645761007d565b806308bbac21146100825780632e0eefd9146100a057806335cea288146100be575b600080fd5b61008a610180565b604051610097919061207c565b60405180910390f35b6100a8610336565b6040516100b5919061207c565b60405180910390f35b6100d860048036038101906100d391906120cf565b6104ec565b6040516100ec989796959493929190612129565b60405180910390f35b61010f600480360381019061010a91906121d3565b6105be565b005b61012b600480360381019061012691906120cf565b610719565b60405161013f989796959493929190612129565b60405180910390f35b610162600480360381019061015d919061223f565b6107eb565b005b61017e6004803603810190610179919061223f565b610963565b005b60606001805480602002602001604051908101604052809291908181526020016000905b8282101561032d578382906000526020600020906006020160405180610100016040529081600082015481526020016001820160009054906101000a900473ffffffffffffffffffffffffffffffffffffffff1673ffffffffffffffffffffffffffffffffffffffff1673ffffffffffffffffffffffffffffffffffffffff16815260200160028201548152602001600382015481526020016004820160009054906101000a900460ff161515151581526020016004820160019054906101000a900460ff161515151581526020016004820160029054906101000a900473ffffffffffffffffffffffffffffffffffffffff1673ffffffffffffffffffffffffffffffffffffffff1673ffffffffffffffffffffffffffffffffffffffff1681526020016005820160009054906101000a900473ffffffffffffffffffffffffffffffffffffffff1673ffffffffffffffffffffffffffffffffffffffff1673ffffffffffffffffffffffffffffffffffffffff1681525050815260200190600101906101a4565b50505050905090565b60606000805480602002602001604051908101604052809291908181526020016000905b828210156104e3578382906000526020600020906006020160405180610100016040529081600082015481526020016001820160009054906101000a900473ffffffffffffffffffffffffffffffffffffffff1673ffffffffffffffffffffffffffffffffffffffff1673ffffffffffffffffffffffffffffffffffffffff16815260200160028201548152602001600382015481526020016004820160009054906101000a900460ff161515151581526020016004820160019054906101000a900460ff161515151581526020016004820160029054906101000a900473ffffffffffffffffffffffffffffffffffffffff1673ffffffffffffffffffffffffffffffffffffffff1673ffffffffffffffffffffffffffffffffffffffff1681526020016005820160009054906101000a900473ffffffffffffffffffffffffffffffffffffffff1673ffffffffffffffffffffffffffffffffffffffff1673ffffffffffffffffffffffffffffffffffffffff16815250508152602001906001019061035a565b50505050905090565b600081815481106104fc57600080fd5b90600052602060002090600602016000915090508060000154908060010160009054906101000a900473ffffffffffffffffffffffffffffffffffffffff16908060020154908060030154908060040160009054906101000a900460ff16908060040160019054906101000a900460ff16908060040160029054906101000a900473ffffffffffffffffffffffffffffffffffffffff16908060050160009054906101000a900473ffffffffffffffffffffffffffffffffffffffff16905088565b600060011515821515036105fd5760006105d784610adc565b815481106105e8576105e76122a6565b5b9060005260206000209060060201905061062a565b600161060884610bbd565b81548110610619576106186122a6565b5b906000526020600020906006020190505b3373ffffffffffffffffffffffffffffffffffffffff168160010160009054906101000a900473ffffffffffffffffffffffffffffffffffffffff1673ffffffffffffffffffffffffffffffffffffffff16146106bc576040517f08c379a00000000000000000000000000000000000000000000000000000000081526004016106b390612332565b60405180910390fd5b60018160040160006101000a81548160ff0219169083151502179055507f50ed996dde1c344c62fca456bf7fd7355794f59b86cb69b059dd9cef69b3ca5d83338460405161070c93929190612352565b60405180910390a1505050565b6001818154811061072957600080fd5b90600052602060002090600602016000915090508060000154908060010160009054906101000a900473ffffffffffffffffffffffffffffffffffffffff16908060020154908060030154908060040160009054906101000a900460ff16908060040160019054906101000a900460ff16908060040160029054906101000a900473ffffffffffffffffffffffffffffffffffffffff16908060050160009054906101000a900473ffffffffffffffffffffffffffffffffffffffff16905088565b6000841161082e576040517f08c379a0000000000000000000000000000000000000000000000000000000008152600401610825906123d5565b60405180910390fd5b60008311610871576040517f08c379a000000000000000000000000000000000000000000000000000000000815260040161086890612467565b60405180910390fd5b60008080549050905060006040518061010001604052808381526020013373ffffffffffffffffffffffffffffffffffffffff1681526020018781526020018681526020016000151581526020016001151581526020018573ffffffffffffffffffffffffffffffffffffffff1681526020018473ffffffffffffffffffffffffffffffffffffffff16815250905061090981610c9f565b61091e6109198260000151610adc565b6111c3565b7f33d96411289395f0842596054abe6cf2802911ed295366531e4bd7b1a78b52e9868686866040516109539493929190612487565b60405180910390a1505050505050565b600084116109a6576040517f08c379a000000000000000000000000000000000000000000000000000000000815260040161099d906123d5565b60405180910390fd5b600083116109e9576040517f08c379a00000000000000000000000000000000000000000000000000000000081526004016109e090612467565b60405180910390fd5b6000600180549050905060006040518061010001604052808381526020013373ffffffffffffffffffffffffffffffffffffffff1681526020018781526020018681526020016000151581526020016000151581526020018573ffffffffffffffffffffffffffffffffffffffff1681526020018473ffffffffffffffffffffffffffffffffffffffff168152509050610a828161159e565b610a97610a928260000151610bbd565b611ac1565b7f33d96411289395f0842596054abe6cf2802911ed295366531e4bd7b1a78b52e986868686604051610acc9493929190612487565b60405180910390a1505050505050565b600080805490508210610b24576040517f08c379a0000000000000000000000000000000000000000000000000000000008152600401610b1b90612518565b60405180910390fd5b60005b600080549050811015610b7c578260008281548110610b4957610b486122a6565b5b90600052602060002090600602016000015403610b695780915050610bb8565b8080610b7490612567565b915050610b27565b506040517f08c379a0000000000000000000000000000000000000000000000000000000008152600401610baf906125fb565b60405180910390fd5b919050565b60006001805490508210610c06576040517f08c379a0000000000000000000000000000000000000000000000000000000008152600401610bfd90612667565b60405180910390fd5b60005b600180549050811015610c5e578260018281548110610c2b57610c2a6122a6565b5b90600052602060002090600602016000015403610c4b5780915050610c9a565b8080610c5690612567565b915050610c09565b506040517f08c379a0000000000000000000000000000000000000000000000000000000008152600401610c91906126d3565b60405180910390fd5b919050565b60008080549050905060008290806001815401808255809150506001900390600052602060002090600602016000909190919091506000820151816000015560208201518160010160006101000a81548173ffffffffffffffffffffffffffffffffffffffff021916908373ffffffffffffffffffffffffffffffffffffffff160217905550604082015181600201556060820151816003015560808201518160040160006101000a81548160ff02191690831515021790555060a08201518160040160016101000a81548160ff02191690831515021790555060c08201518160040160026101000a81548173ffffffffffffffffffffffffffffffffffffffff021916908373ffffffffffffffffffffffffffffffffffffffff16021790555060e08201518160050160006101000a81548173ffffffffffffffffffffffffffffffffffffffff021916908373ffffffffffffffffffffffffffffffffffffffff16021790555050505b600081118015610e4e575081604001516000600183610e2991906126f3565b81548110610e3a57610e396122a6565b5b906000526020600020906006020160020154105b15611066576000600182610e6291906126f3565b81548110610e7357610e726122a6565b5b906000526020600020906006020160008281548110610e9557610e946122a6565b5b9060005260206000209060060201600082015481600001556001820160009054906101000a900473ffffffffffffffffffffffffffffffffffffffff168160010160006101000a81548173ffffffffffffffffffffffffffffffffffffffff021916908373ffffffffffffffffffffffffffffffffffffffff16021790555060028201548160020155600382015481600301556004820160009054906101000a900460ff168160040160006101000a81548160ff0219169083151502179055506004820160019054906101000a900460ff168160040160016101000a81548160ff0219169083151502179055506004820160029054906101000a900473ffffffffffffffffffffffffffffffffffffffff168160040160026101000a81548173ffffffffffffffffffffffffffffffffffffffff021916908373ffffffffffffffffffffffffffffffffffffffff1602179055506005820160009054906101000a900473ffffffffffffffffffffffffffffffffffffffff168160050160006101000a81548173ffffffffffffffffffffffffffffffffffffffff021916908373ffffffffffffffffffffffffffffffffffffffff160217905550905050808061105e90612727565b915050610e0a565b816000828154811061107b5761107a6122a6565b5b90600052602060002090600602016000820151816000015560208201518160010160006101000a81548173ffffffffffffffffffffffffffffffffffffffff021916908373ffffffffffffffffffffffffffffffffffffffff160217905550604082015181600201556060820151816003015560808201518160040160006101000a81548160ff02191690831515021790555060a08201518160040160016101000a81548160ff02191690831515021790555060c08201518160040160026101000a81548173ffffffffffffffffffffffffffffffffffffffff021916908373ffffffffffffffffffffffffffffffffffffffff16021790555060e08201518160050160006101000a81548173ffffffffffffffffffffffffffffffffffffffff021916908373ffffffffffffffffffffffffffffffffffffffff1602179055509050505050565b60008082815481106111d8576111d76122a6565b5b9060005260206000209060060201905060005b6001805490508110801561120e57508160040160009054906101000a900460ff16155b1561159957600060018281548110611229576112286122a6565b5b90600052602060002090600602019050826002015481600201541115801561126057508060040160009054906101000a900460ff16155b1561158557600061127982600301548560030154611e9c565b9050600084600201548261128d9190612750565b90508460040160029054906101000a900473ffffffffffffffffffffffffffffffffffffffff1673ffffffffffffffffffffffffffffffffffffffff166323b872dd8460010160009054906101000a900473ffffffffffffffffffffffffffffffffffffffff168760010160009054906101000a900473ffffffffffffffffffffffffffffffffffffffff16856040518463ffffffff1660e01b815260040161133893929190612792565b6020604051808303816000875af1158015611357573d6000803e3d6000fd5b505050506040513d601f19601f8201168201806040525081019061137b91906127de565b508460050160009054906101000a900473ffffffffffffffffffffffffffffffffffffffff1673ffffffffffffffffffffffffffffffffffffffff166323b872dd8660010160009054906101000a900473ffffffffffffffffffffffffffffffffffffffff168560010160009054906101000a900473ffffffffffffffffffffffffffffffffffffffff16846040518463ffffffff1660e01b815260040161142593929190612792565b6020604051808303816000875af1158015611444573d6000803e3d6000fd5b505050506040513d601f19601f8201168201806040525081019061146891906127de565b5081856003015461147991906126f3565b856003018190555081836003015461149191906126f3565b836003018190555060008560030154036114c35760018560040160006101000a81548160ff0219169083151502179055505b60008360030154036114ed5760018360040160006101000a81548160ff0219169083151502179055505b7fd27398173104982a30034dd18c4679e9b5e507fb2e5c94eeb0a2b9035b82f66c856000015484600001548760010160009054906101000a900473ffffffffffffffffffffffffffffffffffffffff168660010160009054906101000a900473ffffffffffffffffffffffffffffffffffffffff1689600201548760405161157a9695949392919061280b565b60405180910390a150505b50808061159190612567565b9150506111eb565b505050565b6000600180549050905060018290806001815401808255809150506001900390600052602060002090600602016000909190919091506000820151816000015560208201518160010160006101000a81548173ffffffffffffffffffffffffffffffffffffffff021916908373ffffffffffffffffffffffffffffffffffffffff160217905550604082015181600201556060820151816003015560808201518160040160006101000a81548160ff02191690831515021790555060a08201518160040160016101000a81548160ff02191690831515021790555060c08201518160040160026101000a81548173ffffffffffffffffffffffffffffffffffffffff021916908373ffffffffffffffffffffffffffffffffffffffff16021790555060e08201518160050160006101000a81548173ffffffffffffffffffffffffffffffffffffffff021916908373ffffffffffffffffffffffffffffffffffffffff16021790555050505b60008111801561174d575081604001516001808361172891906126f3565b81548110611739576117386122a6565b5b906000526020600020906006020160020154115b15611964576001808261176091906126f3565b81548110611771576117706122a6565b5b906000526020600020906006020160018281548110611793576117926122a6565b5b9060005260206000209060060201600082015481600001556001820160009054906101000a900473ffffffffffffffffffffffffffffffffffffffff168160010160006101000a81548173ffffffffffffffffffffffffffffffffffffffff021916908373ffffffffffffffffffffffffffffffffffffffff16021790555060028201548160020155600382015481600301556004820160009054906101000a900460ff168160040160006101000a81548160ff0219169083151502179055506004820160019054906101000a900460ff168160040160016101000a81548160ff0219169083151502179055506004820160029054906101000a900473ffffffffffffffffffffffffffffffffffffffff168160040160026101000a81548173ffffffffffffffffffffffffffffffffffffffff021916908373ffffffffffffffffffffffffffffffffffffffff1602179055506005820160009054906101000a900473ffffffffffffffffffffffffffffffffffffffff168160050160006101000a81548173ffffffffffffffffffffffffffffffffffffffff021916908373ffffffffffffffffffffffffffffffffffffffff160217905550905050808061195c90612727565b91505061170a565b8160018281548110611979576119786122a6565b5b90600052602060002090600602016000820151816000015560208201518160010160006101000a81548173ffffffffffffffffffffffffffffffffffffffff021916908373ffffffffffffffffffffffffffffffffffffffff160217905550604082015181600201556060820151816003015560808201518160040160006101000a81548160ff02191690831515021790555060a08201518160040160016101000a81548160ff02191690831515021790555060c08201518160040160026101000a81548173ffffffffffffffffffffffffffffffffffffffff021916908373ffffffffffffffffffffffffffffffffffffffff16021790555060e08201518160050160006101000a81548173ffffffffffffffffffffffffffffffffffffffff021916908373ffffffffffffffffffffffffffffffffffffffff1602179055509050505050565b600060018281548110611ad757611ad66122a6565b5b9060005260206000209060060201905060005b60008054905081108015611b0d57508160040160009054906101000a900460ff16155b15611e97576000808281548110611b2757611b266122a6565b5b906000526020600020906006020190508260020154816002015410158015611b5e57508060040160009054906101000a900460ff16155b15611e83576000611b7784600301548360030154611e9c565b90506000846002015482611b8b9190612750565b90508460050160009054906101000a900473ffffffffffffffffffffffffffffffffffffffff1673ffffffffffffffffffffffffffffffffffffffff166323b872dd8460010160009054906101000a900473ffffffffffffffffffffffffffffffffffffffff168760010160009054906101000a900473ffffffffffffffffffffffffffffffffffffffff16846040518463ffffffff1660e01b8152600401611c3693929190612792565b6020604051808303816000875af1158015611c55573d6000803e3d6000fd5b505050506040513d601f19601f82011682018060405250810190611c7991906127de565b508460040160029054906101000a900473ffffffffffffffffffffffffffffffffffffffff1673ffffffffffffffffffffffffffffffffffffffff166323b872dd8660010160009054906101000a900473ffffffffffffffffffffffffffffffffffffffff168560010160009054906101000a900473ffffffffffffffffffffffffffffffffffffffff16856040518463ffffffff1660e01b8152600401611d2393929190612792565b6020604051808303816000875af1158015611d42573d6000803e3d6000fd5b505050506040513d601f19601f82011682018060405250810190611d6691906127de565b50818360030154611d7791906126f3565b8360030181905550818560030154611d8f91906126f3565b85600301819055506000856003015403611dc15760018560040160006101000a81548160ff0219169083151502179055505b6000836003015403611deb5760018360040160006101000a81548160ff0219169083151502179055505b7fd27398173104982a30034dd18c4679e9b5e507fb2e5c94eeb0a2b9035b82f66c836000015486600001548560010160009054906101000a900473ffffffffffffffffffffffffffffffffffffffff168860010160009054906101000a900473ffffffffffffffffffffffffffffffffffffffff16876002015487604051611e789695949392919061280b565b60405180910390a150505b508080611e8f90612567565b915050611aea565b505050565b6000818310611eab5781611ead565b825b905092915050565b600081519050919050565b600082825260208201905092915050565b6000819050602082019050919050565b6000819050919050565b611ef481611ee1565b82525050565b600073ffffffffffffffffffffffffffffffffffffffff82169050919050565b6000611f2582611efa565b9050919050565b611f3581611f1a565b82525050565b60008115159050919050565b611f5081611f3b565b82525050565b61010082016000820151611f6d6000850182611eeb565b506020820151611f806020850182611f2c565b506040820151611f936040850182611eeb565b506060820151611fa66060850182611eeb565b506080820151611fb96080850182611f47565b5060a0820151611fcc60a0850182611f47565b5060c0820151611fdf60c0850182611f2c565b5060e0820151611ff260e0850182611f2c565b50505050565b60006120048383611f56565b6101008301905092915050565b6000602082019050919050565b600061202982611eb5565b6120338185611ec0565b935061203e83611ed1565b8060005b8381101561206f5781516120568882611ff8565b975061206183612011565b925050600181019050612042565b5085935050505092915050565b60006020820190508181036000830152612096818461201e565b905092915050565b600080fd5b6120ac81611ee1565b81146120b757600080fd5b50565b6000813590506120c9816120a3565b92915050565b6000602082840312156120e5576120e461209e565b5b60006120f3848285016120ba565b91505092915050565b61210581611ee1565b82525050565b61211481611f1a565b82525050565b61212381611f3b565b82525050565b60006101008201905061213f600083018b6120fc565b61214c602083018a61210b565b61215960408301896120fc565b61216660608301886120fc565b612173608083018761211a565b61218060a083018661211a565b61218d60c083018561210b565b61219a60e083018461210b565b9998505050505050505050565b6121b081611f3b565b81146121bb57600080fd5b50565b6000813590506121cd816121a7565b92915050565b600080604083850312156121ea576121e961209e565b5b60006121f8858286016120ba565b9250506020612209858286016121be565b9150509250929050565b61221c81611f1a565b811461222757600080fd5b50565b60008135905061223981612213565b92915050565b600080600080608085870312156122595761225861209e565b5b6000612267878288016120ba565b9450506020612278878288016120ba565b93505060406122898782880161222a565b925050606061229a8782880161222a565b91505092959194509250565b7f4e487b7100000000000000000000000000000000000000000000000000000000600052603260045260246000fd5b600082825260208201905092915050565b7f4e6f742074726164657200000000000000000000000000000000000000000000600082015250565b600061231c600a836122d5565b9150612327826122e6565b602082019050919050565b6000602082019050818103600083015261234b8161230f565b9050919050565b600060608201905061236760008301866120fc565b612374602083018561210b565b612381604083018461211a565b949350505050565b7f5072696365206d7573742062652067726561746572207468616e207a65726f00600082015250565b60006123bf601f836122d5565b91506123ca82612389565b602082019050919050565b600060208201905081810360008301526123ee816123b2565b9050919050565b7f5175616e74697479206d7573742062652067726561746572207468616e207a6560008201527f726f000000000000000000000000000000000000000000000000000000000000602082015250565b60006124516022836122d5565b915061245c826123f5565b604082019050919050565b6000602082019050818103600083015261248081612444565b9050919050565b600060808201905061249c60008301876120fc565b6124a960208301866120fc565b6124b6604083018561210b565b6124c3606083018461210b565b95945050505050565b7f427579204f72646572206964206f7574206f662072616e676500000000000000600082015250565b60006125026019836122d5565b915061250d826124cc565b602082019050919050565b60006020820190508181036000830152612531816124f5565b9050919050565b7f4e487b7100000000000000000000000000000000000000000000000000000000600052601160045260246000fd5b600061257282611ee1565b91507fffffffffffffffffffffffffffffffffffffffffffffffffffffffffffffffff82036125a4576125a3612538565b5b600182019050919050565b7f427579204f72646572206e6f7420666f756e6400000000000000000000000000600082015250565b60006125e56013836122d5565b91506125f0826125af565b602082019050919050565b60006020820190508181036000830152612614816125d8565b9050919050565b7f53656c6c204f72646572206964206f7574206f662072616e6765000000000000600082015250565b6000612651601a836122d5565b915061265c8261261b565b602082019050919050565b6000602082019050818103600083015261268081612644565b9050919050565b7f53656c6c204f72646572206e6f7420666f756e64000000000000000000000000600082015250565b60006126bd6014836122d5565b91506126c882612687565b602082019050919050565b600060208201905081810360008301526126ec816126b0565b9050919050565b60006126fe82611ee1565b915061270983611ee1565b925082820390508181111561272157612720612538565b5b92915050565b600061273282611ee1565b91506000820361274557612744612538565b5b600182039050919050565b600061275b82611ee1565b915061276683611ee1565b925082820261277481611ee1565b9150828204841483151761278b5761278a612538565b5b5092915050565b60006060820190506127a7600083018661210b565b6127b4602083018561210b565b6127c160408301846120fc565b949350505050565b6000815190506127d8816121a7565b92915050565b6000602082840312156127f4576127f361209e565b5b6000612802848285016127c9565b91505092915050565b600060c08201905061282060008301896120fc565b61282d60208301886120fc565b61283a604083018761210b565b612847606083018661210b565b61285460808301856120fc565b61286160a08301846120fc565b97965050505050505056fea264697066735822122026d91898d39c7272b64704f0b7b3c2764c691375bd02e4c91c5ce07e78320e8264736f6c63430008140033",
  "linkReferences": {},
  "deployedLinkReferences": {}
}