{
  "_format": "hh-sol-artifact-1",
  "contractName": "Orderbook",
  "sourceName": "contracts/Orderbook.sol",
  "abi": [
    {
      "anonymous": false,
      "inputs": [
        {
          "indexed": false,
          "internalType": "uint256",
          "name": "OrderId",
          "type": "uint256"
        },
        {
          "indexed": false,
          "internalType": "address",
          "name": "wallet",
          "type": "address"
        },
        {
          "indexed": false,
          "internalType": "bool",
          "name": "isBuyOrder",
          "type": "bool"
        }
      ],
      "name": "OrderCancelled",
      "type": "event"
    },
    {
      "anonymous": false,
      "inputs": [
        {
          "indexed": false,
          "internalType": "uint256",
          "name": "buyOrderID",
          "type": "uint256"
        },
        {
          "indexed": false,
          "internalType": "uint256",
          "name": "sellOrderID",
          "type": "uint256"
        },
        {
          "indexed": false,
          "internalType": "address",
          "name": "buyerWallet",
          "type": "address"
        },
        {
          "indexed": false,
          "internalType": "address",
          "name": "sellerWallet",
          "type": "address"
        },
        {
          "indexed": false,
          "internalType": "uint256",
          "name": "price",
          "type": "uint256"
        },
        {
          "indexed": false,
          "internalType": "uint256",
          "name": "quantity",
          "type": "uint256"
        }
      ],
      "name": "TradeMatched",
      "type": "event"
    },
    {
      "inputs": [
        {
          "internalType": "uint256",
          "name": "_price",
          "type": "uint256"
        },
        {
          "internalType": "uint256",
          "name": "_quantity",
          "type": "uint256"
        },
        {
          "internalType": "address",
          "name": "_baseToken",
          "type": "address"
        },
        {
          "internalType": "address",
          "name": "_quoteToken",
          "type": "address"
        }
      ],
      "name": "buyLimitOrder",
      "outputs": [],
      "stateMutability": "nonpayable",
      "type": "function"
    },
    {
      "inputs": [
        {
          "internalType": "uint256",
          "name": "",
          "type": "uint256"
        }
      ],
      "name": "buyOrders",
      "outputs": [
        {
          "internalType": "uint256",
          "name": "id",
          "type": "uint256"
        },
        {
          "internalType": "address",
          "name": "wallet",
          "type": "address"
        },
        {
          "internalType": "uint256",
          "name": "price",
          "type": "uint256"
        },
        {
          "internalType": "uint256",
          "name": "quantity",
          "type": "uint256"
        },
        {
          "internalType": "bool",
          "name": "isFilled",
          "type": "bool"
        },
        {
          "internalType": "bool",
          "name": "isbuyOrder",
          "type": "bool"
        },
        {
          "internalType": "address",
          "name": "baseToken",
          "type": "address"
        },
        {
          "internalType": "address",
          "name": "quoteToken",
          "type": "address"
        }
      ],
      "stateMutability": "view",
      "type": "function"
    },
    {
      "inputs": [
        {
          "internalType": "uint256",
          "name": "orderid",
          "type": "uint256"
        },
        {
          "internalType": "bool",
          "name": "isbuyOrder",
          "type": "bool"
        }
      ],
      "name": "cancelOrders",
      "outputs": [],
      "stateMutability": "nonpayable",
      "type": "function"
    },
    {
      "inputs": [
        {
          "internalType": "uint256",
          "name": "_price",
          "type": "uint256"
        },
        {
          "internalType": "uint256",
          "name": "_quantity",
          "type": "uint256"
        },
        {
          "internalType": "address",
          "name": "_baseToken",
          "type": "address"
        },
        {
          "internalType": "address",
          "name": "_quoteToken",
          "type": "address"
        }
      ],
      "name": "sellLimitOrder",
      "outputs": [],
      "stateMutability": "nonpayable",
      "type": "function"
    },
    {
      "inputs": [
        {
          "internalType": "uint256",
          "name": "",
          "type": "uint256"
        }
      ],
      "name": "sellOrders",
      "outputs": [
        {
          "internalType": "uint256",
          "name": "id",
          "type": "uint256"
        },
        {
          "internalType": "address",
          "name": "wallet",
          "type": "address"
        },
        {
          "internalType": "uint256",
          "name": "price",
          "type": "uint256"
        },
        {
          "internalType": "uint256",
          "name": "quantity",
          "type": "uint256"
        },
        {
          "internalType": "bool",
          "name": "isFilled",
          "type": "bool"
        },
        {
          "internalType": "bool",
          "name": "isbuyOrder",
          "type": "bool"
        },
        {
          "internalType": "address",
          "name": "baseToken",
          "type": "address"
        },
        {
          "internalType": "address",
          "name": "quoteToken",
          "type": "address"
        }
      ],
      "stateMutability": "view",
      "type": "function"
    }
  ],
  "bytecode": "0x608060405234801561001057600080fd5b506125ff806100206000396000f3fe608060405234801561001057600080fd5b50600436106100575760003560e01c806335cea2881461005c5780633b35850c146100935780634a8393f3146100af5780639cb6d8f4146100e6578063e2b1932b14610102575b600080fd5b61007660048036038101906100719190611d33565b61011e565b60405161008a989796959493929190611dcb565b60405180910390f35b6100ad60048036038101906100a89190611e75565b6101f0565b005b6100c960048036038101906100c49190611d33565b61034b565b6040516100dd989796959493929190611dcb565b60405180910390f35b61010060048036038101906100fb9190611ee1565b61041d565b005b61011c60048036038101906101179190611ee1565b6106a6565b005b6000818154811061012e57600080fd5b90600052602060002090600602016000915090508060000154908060010160009054906101000a900473ffffffffffffffffffffffffffffffffffffffff16908060020154908060030154908060040160009054906101000a900460ff16908060040160019054906101000a900460ff16908060040160029054906101000a900473ffffffffffffffffffffffffffffffffffffffff16908060050160009054906101000a900473ffffffffffffffffffffffffffffffffffffffff16905088565b6000600115158215150361022f5760006102098461091f565b8154811061021a57610219611f48565b5b9060005260206000209060060201905061025c565b600161023a84610a00565b8154811061024b5761024a611f48565b5b906000526020600020906006020190505b3373ffffffffffffffffffffffffffffffffffffffff168160010160009054906101000a900473ffffffffffffffffffffffffffffffffffffffff1673ffffffffffffffffffffffffffffffffffffffff16146102ee576040517f08c379a00000000000000000000000000000000000000000000000000000000081526004016102e590611fd4565b60405180910390fd5b60018160040160006101000a81548160ff0219169083151502179055507f50ed996dde1c344c62fca456bf7fd7355794f59b86cb69b059dd9cef69b3ca5d83338460405161033e93929190611ff4565b60405180910390a1505050565b6001818154811061035b57600080fd5b90600052602060002090600602016000915090508060000154908060010160009054906101000a900473ffffffffffffffffffffffffffffffffffffffff16908060020154908060030154908060040160009054906101000a900460ff16908060040160019054906101000a900460ff16908060040160029054906101000a900473ffffffffffffffffffffffffffffffffffffffff16908060050160009054906101000a900473ffffffffffffffffffffffffffffffffffffffff16905088565b60008411610460576040517f08c379a000000000000000000000000000000000000000000000000000000000815260040161045790612077565b60405180910390fd5b600083116104a3576040517f08c379a000000000000000000000000000000000000000000000000000000000815260040161049a90612109565b60405180910390fd5b600083856104b19190612158565b90508173ffffffffffffffffffffffffffffffffffffffff1663095ea7b330836040518363ffffffff1660e01b81526004016104ee92919061219a565b6020604051808303816000875af115801561050d573d6000803e3d6000fd5b505050506040513d601f19601f8201168201806040525081019061053191906121d8565b50808273ffffffffffffffffffffffffffffffffffffffff1663dd62ed3e33306040518363ffffffff1660e01b815260040161056e929190612205565b602060405180830381865afa15801561058b573d6000803e3d6000fd5b505050506040513d601f19601f820116820180604052508101906105af9190612243565b10156105f0576040517f08c379a00000000000000000000000000000000000000000000000000000000081526004016105e7906122bc565b60405180910390fd5b60008080549050905060006040518061010001604052808381526020013373ffffffffffffffffffffffffffffffffffffffff1681526020018881526020018781526020016000151581526020016001151581526020018673ffffffffffffffffffffffffffffffffffffffff1681526020018573ffffffffffffffffffffffffffffffffffffffff16815250905061068881610ae2565b61069d610698826000015161091f565b611006565b50505050505050565b600084116106e9576040517f08c379a00000000000000000000000000000000000000000000000000000000081526004016106e090612077565b60405180910390fd5b6000831161072c576040517f08c379a000000000000000000000000000000000000000000000000000000000815260040161072390612109565b60405180910390fd5b8073ffffffffffffffffffffffffffffffffffffffff1663095ea7b330856040518363ffffffff1660e01b815260040161076792919061219a565b6020604051808303816000875af1158015610786573d6000803e3d6000fd5b505050506040513d601f19601f820116820180604052508101906107aa91906121d8565b50828273ffffffffffffffffffffffffffffffffffffffff1663dd62ed3e33306040518363ffffffff1660e01b81526004016107e7929190612205565b602060405180830381865afa158015610804573d6000803e3d6000fd5b505050506040513d601f19601f820116820180604052508101906108289190612243565b1015610869576040517f08c379a0000000000000000000000000000000000000000000000000000000008152600401610860906122bc565b60405180910390fd5b6000600180549050905060006040518061010001604052808381526020013373ffffffffffffffffffffffffffffffffffffffff1681526020018781526020018681526020016000151581526020016000151581526020018573ffffffffffffffffffffffffffffffffffffffff1681526020018473ffffffffffffffffffffffffffffffffffffffff168152509050610902816113e1565b6109176109128260000151610a00565b611904565b505050505050565b600080805490508210610967576040517f08c379a000000000000000000000000000000000000000000000000000000000815260040161095e90612328565b60405180910390fd5b60005b6000805490508110156109bf57826000828154811061098c5761098b611f48565b5b906000526020600020906006020160000154036109ac57809150506109fb565b80806109b790612348565b91505061096a565b506040517f08c379a00000000000000000000000000000000000000000000000000000000081526004016109f2906123dc565b60405180910390fd5b919050565b60006001805490508210610a49576040517f08c379a0000000000000000000000000000000000000000000000000000000008152600401610a4090612448565b60405180910390fd5b60005b600180549050811015610aa1578260018281548110610a6e57610a6d611f48565b5b90600052602060002090600602016000015403610a8e5780915050610add565b8080610a9990612348565b915050610a4c565b506040517f08c379a0000000000000000000000000000000000000000000000000000000008152600401610ad4906124b4565b60405180910390fd5b919050565b60008080549050905060008290806001815401808255809150506001900390600052602060002090600602016000909190919091506000820151816000015560208201518160010160006101000a81548173ffffffffffffffffffffffffffffffffffffffff021916908373ffffffffffffffffffffffffffffffffffffffff160217905550604082015181600201556060820151816003015560808201518160040160006101000a81548160ff02191690831515021790555060a08201518160040160016101000a81548160ff02191690831515021790555060c08201518160040160026101000a81548173ffffffffffffffffffffffffffffffffffffffff021916908373ffffffffffffffffffffffffffffffffffffffff16021790555060e08201518160050160006101000a81548173ffffffffffffffffffffffffffffffffffffffff021916908373ffffffffffffffffffffffffffffffffffffffff16021790555050505b600081118015610c91575081604001516000600183610c6c91906124d4565b81548110610c7d57610c7c611f48565b5b906000526020600020906006020160020154105b15610ea9576000600182610ca591906124d4565b81548110610cb657610cb5611f48565b5b906000526020600020906006020160008281548110610cd857610cd7611f48565b5b9060005260206000209060060201600082015481600001556001820160009054906101000a900473ffffffffffffffffffffffffffffffffffffffff168160010160006101000a81548173ffffffffffffffffffffffffffffffffffffffff021916908373ffffffffffffffffffffffffffffffffffffffff16021790555060028201548160020155600382015481600301556004820160009054906101000a900460ff168160040160006101000a81548160ff0219169083151502179055506004820160019054906101000a900460ff168160040160016101000a81548160ff0219169083151502179055506004820160029054906101000a900473ffffffffffffffffffffffffffffffffffffffff168160040160026101000a81548173ffffffffffffffffffffffffffffffffffffffff021916908373ffffffffffffffffffffffffffffffffffffffff1602179055506005820160009054906101000a900473ffffffffffffffffffffffffffffffffffffffff168160050160006101000a81548173ffffffffffffffffffffffffffffffffffffffff021916908373ffffffffffffffffffffffffffffffffffffffff1602179055509050508080610ea190612508565b915050610c4d565b8160008281548110610ebe57610ebd611f48565b5b90600052602060002090600602016000820151816000015560208201518160010160006101000a81548173ffffffffffffffffffffffffffffffffffffffff021916908373ffffffffffffffffffffffffffffffffffffffff160217905550604082015181600201556060820151816003015560808201518160040160006101000a81548160ff02191690831515021790555060a08201518160040160016101000a81548160ff02191690831515021790555060c08201518160040160026101000a81548173ffffffffffffffffffffffffffffffffffffffff021916908373ffffffffffffffffffffffffffffffffffffffff16021790555060e08201518160050160006101000a81548173ffffffffffffffffffffffffffffffffffffffff021916908373ffffffffffffffffffffffffffffffffffffffff1602179055509050505050565b600080828154811061101b5761101a611f48565b5b9060005260206000209060060201905060005b6001805490508110801561105157508160040160009054906101000a900460ff16155b156113dc5760006001828154811061106c5761106b611f48565b5b9060005260206000209060060201905082600201548160020154111580156110a357508060040160009054906101000a900460ff16155b156113c85760006110bc82600301548560030154611cdf565b905060008460020154826110d09190612158565b90508460040160029054906101000a900473ffffffffffffffffffffffffffffffffffffffff1673ffffffffffffffffffffffffffffffffffffffff166323b872dd8460010160009054906101000a900473ffffffffffffffffffffffffffffffffffffffff168760010160009054906101000a900473ffffffffffffffffffffffffffffffffffffffff16856040518463ffffffff1660e01b815260040161117b93929190612531565b6020604051808303816000875af115801561119a573d6000803e3d6000fd5b505050506040513d601f19601f820116820180604052508101906111be91906121d8565b508460050160009054906101000a900473ffffffffffffffffffffffffffffffffffffffff1673ffffffffffffffffffffffffffffffffffffffff166323b872dd8660010160009054906101000a900473ffffffffffffffffffffffffffffffffffffffff168560010160009054906101000a900473ffffffffffffffffffffffffffffffffffffffff16846040518463ffffffff1660e01b815260040161126893929190612531565b6020604051808303816000875af1158015611287573d6000803e3d6000fd5b505050506040513d601f19601f820116820180604052508101906112ab91906121d8565b508185600301546112bc91906124d4565b85600301819055508183600301546112d491906124d4565b836003018190555060008560030154036113065760018560040160006101000a81548160ff0219169083151502179055505b60008360030154036113305760018360040160006101000a81548160ff0219169083151502179055505b7fd27398173104982a30034dd18c4679e9b5e507fb2e5c94eeb0a2b9035b82f66c856000015484600001548760010160009054906101000a900473ffffffffffffffffffffffffffffffffffffffff168660010160009054906101000a900473ffffffffffffffffffffffffffffffffffffffff168960020154876040516113bd96959493929190612568565b60405180910390a150505b5080806113d490612348565b91505061102e565b505050565b6000600180549050905060018290806001815401808255809150506001900390600052602060002090600602016000909190919091506000820151816000015560208201518160010160006101000a81548173ffffffffffffffffffffffffffffffffffffffff021916908373ffffffffffffffffffffffffffffffffffffffff160217905550604082015181600201556060820151816003015560808201518160040160006101000a81548160ff02191690831515021790555060a08201518160040160016101000a81548160ff02191690831515021790555060c08201518160040160026101000a81548173ffffffffffffffffffffffffffffffffffffffff021916908373ffffffffffffffffffffffffffffffffffffffff16021790555060e08201518160050160006101000a81548173ffffffffffffffffffffffffffffffffffffffff021916908373ffffffffffffffffffffffffffffffffffffffff16021790555050505b600081118015611590575081604001516001808361156b91906124d4565b8154811061157c5761157b611f48565b5b906000526020600020906006020160020154115b156117a757600180826115a391906124d4565b815481106115b4576115b3611f48565b5b9060005260206000209060060201600182815481106115d6576115d5611f48565b5b9060005260206000209060060201600082015481600001556001820160009054906101000a900473ffffffffffffffffffffffffffffffffffffffff168160010160006101000a81548173ffffffffffffffffffffffffffffffffffffffff021916908373ffffffffffffffffffffffffffffffffffffffff16021790555060028201548160020155600382015481600301556004820160009054906101000a900460ff168160040160006101000a81548160ff0219169083151502179055506004820160019054906101000a900460ff168160040160016101000a81548160ff0219169083151502179055506004820160029054906101000a900473ffffffffffffffffffffffffffffffffffffffff168160040160026101000a81548173ffffffffffffffffffffffffffffffffffffffff021916908373ffffffffffffffffffffffffffffffffffffffff1602179055506005820160009054906101000a900473ffffffffffffffffffffffffffffffffffffffff168160050160006101000a81548173ffffffffffffffffffffffffffffffffffffffff021916908373ffffffffffffffffffffffffffffffffffffffff160217905550905050808061179f90612508565b91505061154d565b81600182815481106117bc576117bb611f48565b5b90600052602060002090600602016000820151816000015560208201518160010160006101000a81548173ffffffffffffffffffffffffffffffffffffffff021916908373ffffffffffffffffffffffffffffffffffffffff160217905550604082015181600201556060820151816003015560808201518160040160006101000a81548160ff02191690831515021790555060a08201518160040160016101000a81548160ff02191690831515021790555060c08201518160040160026101000a81548173ffffffffffffffffffffffffffffffffffffffff021916908373ffffffffffffffffffffffffffffffffffffffff16021790555060e08201518160050160006101000a81548173ffffffffffffffffffffffffffffffffffffffff021916908373ffffffffffffffffffffffffffffffffffffffff1602179055509050505050565b60006001828154811061191a57611919611f48565b5b9060005260206000209060060201905060005b6000805490508110801561195057508160040160009054906101000a900460ff16155b15611cda57600080828154811061196a57611969611f48565b5b9060005260206000209060060201905082600201548160020154101580156119a157508060040160009054906101000a900460ff16155b15611cc65760006119ba84600301548360030154611cdf565b905060008460020154826119ce9190612158565b90508460050160009054906101000a900473ffffffffffffffffffffffffffffffffffffffff1673ffffffffffffffffffffffffffffffffffffffff166323b872dd8460010160009054906101000a900473ffffffffffffffffffffffffffffffffffffffff168760010160009054906101000a900473ffffffffffffffffffffffffffffffffffffffff16846040518463ffffffff1660e01b8152600401611a7993929190612531565b6020604051808303816000875af1158015611a98573d6000803e3d6000fd5b505050506040513d601f19601f82011682018060405250810190611abc91906121d8565b508460040160029054906101000a900473ffffffffffffffffffffffffffffffffffffffff1673ffffffffffffffffffffffffffffffffffffffff166323b872dd8660010160009054906101000a900473ffffffffffffffffffffffffffffffffffffffff168560010160009054906101000a900473ffffffffffffffffffffffffffffffffffffffff16856040518463ffffffff1660e01b8152600401611b6693929190612531565b6020604051808303816000875af1158015611b85573d6000803e3d6000fd5b505050506040513d601f19601f82011682018060405250810190611ba991906121d8565b50818360030154611bba91906124d4565b8360030181905550818560030154611bd291906124d4565b85600301819055506000856003015403611c045760018560040160006101000a81548160ff0219169083151502179055505b6000836003015403611c2e5760018360040160006101000a81548160ff0219169083151502179055505b7fd27398173104982a30034dd18c4679e9b5e507fb2e5c94eeb0a2b9035b82f66c836000015486600001548560010160009054906101000a900473ffffffffffffffffffffffffffffffffffffffff168860010160009054906101000a900473ffffffffffffffffffffffffffffffffffffffff16876002015487604051611cbb96959493929190612568565b60405180910390a150505b508080611cd290612348565b91505061192d565b505050565b6000818310611cee5781611cf0565b825b905092915050565b600080fd5b6000819050919050565b611d1081611cfd565b8114611d1b57600080fd5b50565b600081359050611d2d81611d07565b92915050565b600060208284031215611d4957611d48611cf8565b5b6000611d5784828501611d1e565b91505092915050565b611d6981611cfd565b82525050565b600073ffffffffffffffffffffffffffffffffffffffff82169050919050565b6000611d9a82611d6f565b9050919050565b611daa81611d8f565b82525050565b60008115159050919050565b611dc581611db0565b82525050565b600061010082019050611de1600083018b611d60565b611dee602083018a611da1565b611dfb6040830189611d60565b611e086060830188611d60565b611e156080830187611dbc565b611e2260a0830186611dbc565b611e2f60c0830185611da1565b611e3c60e0830184611da1565b9998505050505050505050565b611e5281611db0565b8114611e5d57600080fd5b50565b600081359050611e6f81611e49565b92915050565b60008060408385031215611e8c57611e8b611cf8565b5b6000611e9a85828601611d1e565b9250506020611eab85828601611e60565b9150509250929050565b611ebe81611d8f565b8114611ec957600080fd5b50565b600081359050611edb81611eb5565b92915050565b60008060008060808587031215611efb57611efa611cf8565b5b6000611f0987828801611d1e565b9450506020611f1a87828801611d1e565b9350506040611f2b87828801611ecc565b9250506060611f3c87828801611ecc565b91505092959194509250565b7f4e487b7100000000000000000000000000000000000000000000000000000000600052603260045260246000fd5b600082825260208201905092915050565b7f4e6f742074726164657200000000000000000000000000000000000000000000600082015250565b6000611fbe600a83611f77565b9150611fc982611f88565b602082019050919050565b60006020820190508181036000830152611fed81611fb1565b9050919050565b60006060820190506120096000830186611d60565b6120166020830185611da1565b6120236040830184611dbc565b949350505050565b7f5072696365206d7573742062652067726561746572207468616e207a65726f00600082015250565b6000612061601f83611f77565b915061206c8261202b565b602082019050919050565b6000602082019050818103600083015261209081612054565b9050919050565b7f5175616e74697479206d7573742062652067726561746572207468616e207a6560008201527f726f000000000000000000000000000000000000000000000000000000000000602082015250565b60006120f3602283611f77565b91506120fe82612097565b604082019050919050565b60006020820190508181036000830152612122816120e6565b9050919050565b7f4e487b7100000000000000000000000000000000000000000000000000000000600052601160045260246000fd5b600061216382611cfd565b915061216e83611cfd565b925082820261217c81611cfd565b9150828204841483151761219357612192612129565b5b5092915050565b60006040820190506121af6000830185611da1565b6121bc6020830184611d60565b9392505050565b6000815190506121d281611e49565b92915050565b6000602082840312156121ee576121ed611cf8565b5b60006121fc848285016121c3565b91505092915050565b600060408201905061221a6000830185611da1565b6122276020830184611da1565b9392505050565b60008151905061223d81611d07565b92915050565b60006020828403121561225957612258611cf8565b5b60006122678482850161222e565b91505092915050565b7f416c6c6f77616e6365206e6f7420656e6f756768000000000000000000000000600082015250565b60006122a6601483611f77565b91506122b182612270565b602082019050919050565b600060208201905081810360008301526122d581612299565b9050919050565b7f427579204f72646572206964206f7574206f662072616e676500000000000000600082015250565b6000612312601983611f77565b915061231d826122dc565b602082019050919050565b6000602082019050818103600083015261234181612305565b9050919050565b600061235382611cfd565b91507fffffffffffffffffffffffffffffffffffffffffffffffffffffffffffffffff820361238557612384612129565b5b600182019050919050565b7f427579204f72646572206e6f7420666f756e6400000000000000000000000000600082015250565b60006123c6601383611f77565b91506123d182612390565b602082019050919050565b600060208201905081810360008301526123f5816123b9565b9050919050565b7f53656c6c204f72646572206964206f7574206f662072616e6765000000000000600082015250565b6000612432601a83611f77565b915061243d826123fc565b602082019050919050565b6000602082019050818103600083015261246181612425565b9050919050565b7f53656c6c204f72646572206e6f7420666f756e64000000000000000000000000600082015250565b600061249e601483611f77565b91506124a982612468565b602082019050919050565b600060208201905081810360008301526124cd81612491565b9050919050565b60006124df82611cfd565b91506124ea83611cfd565b925082820390508181111561250257612501612129565b5b92915050565b600061251382611cfd565b91506000820361252657612525612129565b5b600182039050919050565b60006060820190506125466000830186611da1565b6125536020830185611da1565b6125606040830184611d60565b949350505050565b600060c08201905061257d6000830189611d60565b61258a6020830188611d60565b6125976040830187611da1565b6125a46060830186611da1565b6125b16080830185611d60565b6125be60a0830184611d60565b97965050505050505056fea26469706673582212203bfadd6350188f00f73bb58e9e9df0e4422fc9bf43a0765dcd5d5cb2ce2b150d64736f6c63430008140033",
  "linkReferences": {},
  "deployedLinkReferences": {}
}